:020000040800F2
:10000000980E0020711C0008790E00087B0E000875
:100010007F0E0008830E0008870E00080000000015
:100020000000000000000000000000008B0E00082F
:100030008D0E0008000000008F0E0008910E0008D1
:100040008B1C00088B1C00088B1C00088B1C0008F4
:100050008B1C00088B1C00088B1C00088B1C0008E4
:100060008B1C00088B1C00088B1C00088B1C0008D4
:100070008B1C00088B1C00088B1C00088B1C0008C4
:100080008B1C00088B1C00088B1C00088B1C0008B4
:100090008B1C00088B1C00088B1C00088B1C0008A4
:1000A0008B1C00088B1C00088B1C00088B1C000894
:1000B000093C0008BF1700083F1800088B1C000807
:1000C0008B1C00088B1C00088B1C00088B1C000874
:1000D0008B1C0008331A0008951B00088B1C0008B5
:1000E0008B1C00088B1C00088B1C00088B1C000854
:1000F0008B1C00088B1C00088B1C00088B1C000844
:100100008B1C00088B1C00088B1C00088B1C000833
:100110008B1C00088B1C00088B1C00088B1C000823
:100120008B1C00088B1C00088B1C00088B1C000813
:1001300000F002F800F06DF80AA090E8000C82448C
:100140008344AAF10107DA4501D100F062F8AFF269
:10015000090EBAE80F0013F0010F18BFFB1A43F0A5
:1001600001031847104B0000304B00000A444FF0C9
:10017000000C10F8013B13F0070408BF10F8014B06
:100180001D1108BF10F8015B641E05D010F8016B4B
:10019000641E01F8016BF9D113F0080F1EBF10F8AF
:1001A000014BAD1C0C1B09D16D1E58BF01F801CBD2
:1001B000FAD505E014F8016B01F8016B6D1EF9D555
:1001C0009142D6D37047000000230024002500266A
:1001D000103A28BF78C1FBD8520728BF30C148BFAA
:1001E0000B607047642904F0A382752904F0A08293
:1001F000782904F0D582632904F04E84732904F031
:100200005384002070471FB5AFF300801FBD10B5A9
:1002100010BD04F055FC1146FFF7F5FF00F04AF958
:1002200004F073FCFFF7F3FF01F0A6FB10B5002408
:10023000FE48407872280BD1FC488078732807D19B
:10024000FA48C078652803D1F84800795F280FD0B4
:10025000F648407873287ED1F448807863287ED1B0
:10026000F248C07861287AD1F04800795F2876D1C9
:100270000020EF4908702420EE49ED4A1278885496
:10028000EB480078401CEA4908707220E949E84AC6
:1002900012788854E6480078401CE54908707320BD
:1002A000E449E34A12788854E1480078401CE04968
:1002B00008707420DF49DE4A12788854DC480078E0
:1002C000401CDB4908705F21DA48D94A1278815412
:1002D000D7480078401CD64908705F21D548D44AD9
:1002E00012788154D2480078401CD149087000200F
:1002F000D049CF4A12788854CD480078401CCC4968
:1003000008700021CB48CA4A12788154C848007846
:10031000401CC749087008460178C64800F025FF10
:10032000C449C34A12788854C1480078401CC04967
:10033000087000240DE0BF48015DBF4802F0D1F90C
:1003400000BF4021BC4802F03AFA0128F9D1601CF4
:10035000C4B2B74800E002E000788442EBDB10BD95
:1003600010B504460120B54908700020B449086062
:1003700041F61F4142F20F7001F034FA012C03D113
:100380000120B04908602EE0022C04D10120AD49C3
:10039000091F086027E0032C04D10120A849243953
:1003A000086020E0042C04D10120A5492839086008
:1003B00019E0052C03D10120A349086013E0062CA5
:1003C00004D10120A049091F08600CE0072C04D1CA
:1003D00000209D490839086005E0082C03D1002061
:1003E00099490C3908600121984802F03CFE10BD83
:1003F0000121974A117001281CD10021904A143A1A
:1004000011600121934AC2F8A0118D4A1C3A116073
:100410000021121F116001218A4A38321160002127
:10042000121F11600121121F116000218A4AC2F8B7
:10043000B0113BE002281DD10021814A143A11601D
:100440000121844AC2F8A01100217D4A1C3A1160A2
:100450000121121F116000217A4A383211600121F6
:10046000121F11600021121F116001217A4AC2F887
:10047000B0111BE0032819D0042817D10121704ABC
:10048000143A1160734AC2F8A01100216C4A1C3A58
:100490001160121F11606B4A38321160121F116017
:1004A0000121121F11606C4AC2F8B0110021684A84
:1004B000117070472DE9F04100240027A04600F09C
:1004C000EBFD01F0F3F901F051FA4FF4E13001F0E6
:1004D00061FA4FF4E13001F00DFB00F0BFFD41F691
:1004E0001F4142F20F7001F07DF941F61F4142F2C7
:1004F0000F7001F037F94AE35848008810F4004FB4
:100500007ED05748007800287AD154480088C0F33C
:100510000D0654480078242873D1002E71DD701E1A
:1005200081B2504800F021FE0746242F01D00D2F44
:1005300001D1781CC7B2701E4A49085CB84272D11A
:1005400000203B4908704748407872286CD14548E4
:1005500080786528FAD14348C0787928F6D1414897
:1005600000795F28F2D101203D49087024203149EB
:100570002F4A127888542E480078401C2C49087065
:1005800072202C492A4A1278885429480078401C45
:100590002749087065202749254A1278885424483D
:1005A0000078401C2249087079202249204A12789C
:1005B00088541F480078401C1D4908705F201D4961
:1005C0001B4A127888541A480078401C1849087051
:1005D0005F201849164A1278885415480078401C44
:1005E000134908701F4840791249114A12788854FB
:1005F0000F480078401C0E4908700846017801E059
:10060000F0E1E2E10B4800F0B0FD0A49084A127837
:10061000885407480078401C05490870022010499A
:10062000087000242EE0C3E13DE00000F40100204A
:100630000600002090010020003801400700002043
:10064000B8012242848121429C01214200080040DD
:1006500008000020000022420080214228000020E3
:100660000400002014050020FF48015DFF4802F04F
:1006700038F800BF4021FD4802F0A1F80128F9D167
:10068000601C84B2FA4800788442EDDB0020F9490E
:100690000880012240F22551F44801F0BFFF0020FC
:1006A000F5490870A4E1F548407872287ED1F348F6
:1006B00080787328FAD1F148C0786528F6D1EF48E0
:1006C00000795F28F2D1EE4800780028EED10320AF
:1006D000E94908702420E449E54A12788854E4483E
:1006E0000078401CE24908707220DF49E04A127825
:1006F0008854DF480078401CDD4908707321DA48CF
:10070000DB4A12788154DA480078401CD8490870D6
:100710006520D549D64A12788854D5480078401CBF
:10072000D34908705F21D048D14A12788154D0480B
:100730000078401CCE4908705F20CB49CC4A127823
:100740008854CB480078401CC9490870CB48407990
:10075000C549C74A12788854C5480078401CC44926
:100760000870C6488079C049C14A12788854C04888
:100770000078401CBE49087008460178BA4800F06D
:10078000F4FCB949BA4A12788854B9480078401C38
:10079000B7490870B9488079303800F0FF08B8F1DF
:1007A000010F04D10120FFF7DBFD14E037E0B8F1C1
:1007B000020F03D10220FFF7D3FD0CE0B8F1030FC5
:1007C00003D10320FFF7CCFD05E0B8F1040F02D1FF
:1007D0000420FFF7C5FD0420A749087000240DE0A0
:1007E000A148015DA14801F07CFF00BF40219F4866
:1007F00001F0E5FF0128F9D1601C84B29C48007823
:100800008442EDDB00209B490880012240F2255103
:10081000964801F003FF002097490870E8E09748E8
:10082000407873287ED1954880787728FAD193480C
:10083000C0786828F6D1914800795F28F2D19148B4
:1008400000780028EED105208B49087024208649C5
:10085000874A1278885486480078401C844908707A
:1008600073208149824A1278885481480078401C5C
:100870007F49087077217C487D4A127881547C48F2
:100880000078401C7A49087068207749784A1278C5
:10089000885477480078401C754908705F20724979
:1008A000734A1278885472480078401C7049087066
:1008B0005F206D496E4A127888546D480078401C5C
:1008C0006B4908706D4840796749694A12788854C5
:1008D00067480078401C664908706848807962491A
:1008E000634A1278885462480078401C6049087056
:1008F000084601785C4800F038FC5B495C4A127895
:1009000088545B480078401C594908705B488079DE
:10091000303800F0FF08B8F1010F04D10120FFF7D3
:1009200067FD14E037E0B8F1020F03D10220FFF7B2
:100930005FFD0CE0B8F1030F03D10320FFF758FD72
:1009400005E0B8F1040F02D10420FFF751FD0620A5
:100950004949087000240DE04348015D434801F017
:10096000C0FE00BF4021414801F029FF0128F9D114
:10097000601C84B23E4800788442EDDB00203D4993
:100980000880012240F22551384801F047FE00203E
:10099000394908702CE0002036490880012240F2D5
:1009A0002551324801F03AFE0020334908701FE01B
:1009B000002030490880012240F225512B4801F0E7
:1009C0002DFE00202C49087012E0002029490880E3
:1009D000012240F22551254801F020FE0020264941
:1009E000087005E0012240F22551204801F016FE72
:1009F0002548008810F4004F7ED024480078002855
:100A00007AD121480088C0F30D05214800782428B8
:100A100073D1002D71DD681E81B21D4800F0A5FB69
:100A20000746242F01D00D2F01D1781CC7B2681EB4
:100A30001749085CB8427ED100200D49087014485F
:100A40004078722878D1124880786528FAD1104809
:100A5000C0786428F6D10E4800795F28F2D10120D1
:100A60000A490870242115E090010020004400404C
:100A700006000020280000200400002014050020AB
:100A800007000020080000202400002005000020AE
:100A9000F4010020F148F24A12788154F0480078BD
:100AA000401CEF4908707220EC49ED4A12788854D6
:100AB000EB480078401CEA4908706521E748E84A9D
:100AC00012788154E6480078401CE549087064219A
:100AD000E248E34A12788154E1480078401CE0493A
:100AE00008705F20DD49DE4A12788854DC480078BF
:100AF000401CDB49087001E0A4E196E15F21D74882
:100B0000D74A12788154D6480078401CD4490870DE
:100B1000D4484179D148D24A12788154D0480078DB
:100B2000401CCF49087008460178CC4800F01DFBF6
:100B3000CA49CB4A01E069E12AE012788854C848E2
:100B40000078401CC64908700220C749087000247C
:100B50000DE0C248015DC54801F0C3FD00BF402162
:100B6000C24801F02CFE0128F9D1601C84B2BC48B7
:100B700000788442EDDB0020BD490880012240F26C
:100B80002551BA4801F04AFD0020B749087062E1DA
:100B9000B448407872287ED1B24880787328FAD160
:100BA000B048C0786528F6D1AE4800795F28F2D108
:100BB000B04800780028EED10320AB49087024210A
:100BC000A648A74A12788154A5480078401CA44939
:100BD00008707221A148A24A12788154A048007876
:100BE000401C9F49087073219C489D4A127881548B
:100BF0009B480078401C9A49087065209749984A9C
:100C00001278885496480078401C954908705F21F6
:100C10009248934A1278815491480078401C904938
:100C200008705F208D498E4A127888548C4800786D
:100C3000401C8B4908708B4840798849884A127853
:100C4000885487480078401C854908708548817918
:100C50008248834A1278815481480078401C804938
:100C60000870804880793038052801D1FFF778FB7B
:100C70007B480178794800F078FA7849784A127808
:100C8000885477480078401C7549087004207649DC
:100C9000087000240EE01EE07048015D734801F00A
:100CA00020FD00BF4021714801F089FD0128F9D1E4
:100CB000601C84B26A4800788442EDDB00206C49F5
:100CC0000880012240F22551684801F0A7FC00206D
:100CD00065490870BFE06348407873287ED1614859
:100CE00080786328FAD15F48C0786128F6D15D48E2
:100CF00000795F287DD105205B4908702421574881
:100D0000574A1278815456480078401C544908705C
:100D100073215248524A1278815451480078401C3D
:100D20004F49087063214D484D4A127881544C4810
:100D30000078401C4A49087061204849484A1278A6
:100D4000885447480078401C454908705F20434953
:100D5000434A1278885442480078401C4049087041
:100D60005F203E493E4A127888543D480078401C36
:100D70003B4908703B4840793849394A12788854D1
:100D800037480078401C36490870084601783348D7
:100D900000F0EBF93149324A127888543048007833
:100DA000401C2F49087006202F49087000240DE0D0
:100DB0002A48015D2D4801F094FC00BF40212B48DA
:100DC00001F0FDFC0128F9D1601C84B224480078B0
:100DD0008442EDDB00202649088000E009E0012282
:100DE00040F22551214801F019FC00201E490870ED
:100DF00031E000201E490880012240F225511B48A5
:100E000001F00CFC00201849087024E0002018496B
:100E10000880012240F22551144801F0FFFBFFF742
:100E200005FA00201049087015E0002010490880DC
:100E3000012240F225510D4801F0F0FB00200A4943
:100E4000087008E00848007828B9012240F22551CE
:100E5000064801F0E3FBFFF74FBB000090010020C4
:100E600006000020F40100200500002000380140A9
:100E70002400002007000020704700BFFEE700BFED
:100E8000FEE700BFFEE700BFFEE770477047704710
:100E90007047000000200021674A126842F4803247
:100EA000654B1A6000BF644A126802F40031401CAE
:100EB00011B9B0F5A06FF6D15F4A126812F4003F85
:100EC00001D0012100E00021012942D15B4A1268D2
:100ED00042F01002594B1A601A46126822F00302BF
:100EE0001A601A46126842F002021A60524A5268A8
:100EF000514B5A601A4652685A601A46526842F478
:100F000080625A601A46526822F47C125A601A466D
:100F1000526842F4E8125A601A46126842F080722F
:100F20001A6000BF444A126812F0007FFAD0424AA9
:100F3000526822F00302404B5A601A46526842F04F
:100F400002025A6000BF3C4A526802F00C02082AB2
:100F5000F9D1704710B5FFF79DFF10BD10B53648A9
:100F6000006840F001003449086008464068344990
:100F700008403149486008460068324908402E4917
:100F800008600846006820F4802008600846406831
:100F900020F4FE0048604FF41F008860FFF7DAFF7E
:100FA0004FF000602849086010BD10B500200021F6
:100FB0000022214B5B6803F00C0020B1042806D00E
:100FC000082828D107E0214B214C236027E01F4B44
:100FD0001F4C236023E0184B5B6803F47011164B21
:100FE0005B6803F48032022303EB914122B9194B71
:100FF0004B43174C23600DE00F4B5B6813F4003F2D
:1010000004D0144B4B43124C236003E00F4B4B4373
:101010000F4C236003E00D4B0D4C236000BF00BF5D
:10102000054B5B68C3F303130B4CE05C084B1B6878
:10103000C340074C236010BD001002400020024056
:101040000000FFF8FFFFF6FE08ED00E000127A0056
:101050000C00002000093D001000002008B501210F
:10106000102001F09FF94FF44040ADF8000010202F
:101070008DF8030003208DF802006946414800F016
:10108000E7FE4FF480413F4800F08AFF4FF40041F3
:101090003C4800F085FF08BD08B501211C2001F087
:1010A00081F94FF20300ADF8000010208DF8030025
:1010B00003208DF802006946334800F0C9FE012183
:1010C000314800F06FFF02212F4800F06BFF4FF412
:1010D00080512D4800F066FF4FF400512A4800F07F
:1010E00061FF4FF48041284800F05CFF4FF400415D
:1010F000254800F057FF4FF47C70ADF800006946BA
:10110000204800F0A5FE10211E4800F04BFF2021D2
:101110001C4800F047FF40211A4800F043FF80219F
:10112000184800F03FFF4FF48071164800F03AFF76
:101130004FF40071134800F035FFF020ADF80000C7
:101140006946124800F084FE1021104800F028FF84
:1011500020210E4800F024FF40210C4800F022FF1F
:1011600080210A4800F01EFF08BD10B5024600208D
:101170001078012303E0D45C60405C1CA3B28B4276
:10118000F9DB10BD00100140000C014000080140D7
:1011900008B50121082001F005F94FF44060ADF8D1
:1011A000000010208DF8030003208DF8020069462E
:1011B0009E4800F04DFE4FF440619C4800F0F0FE68
:1011C00008BD10B59948001D006820F4704098498A
:1011D000C1F8040C0846D0F8040C40F44050934980
:1011E000091D08600120934908609349C1F8A801CE
:1011F000042000F070FB00208F49C1F8AC010420EE
:1012000000F069FB00208C49C1F8A80110BD10B5A1
:101210008648001D006820F470408549C1F8040C20
:101220000846D0F8040C40F440508049091D08607D
:1012300000208049091F08607F49C1F8AC010420E3
:1012400000F049FB01207B49091F08607A49C1F879
:10125000AC01042000F03FFB10BD10B50024734822
:10126000001D006820F470407149C1F8040C084664
:10127000D0F8040C40F400406C49091D08600120BE
:101280006C49086000F027FB01206B49C1F8A801F8
:1012900000F021FB07E0601CC4B2FA2C03DDFFF76D
:1012A000B6FF012010BD6348803800680028F2D1E5
:1012B0006049091F0860F5E710B500205D49091F66
:1012C00008605B48D0F8040C20F470405849C1F81D
:1012D000040C0846D0F8040C40F440505349091D52
:1012E000086000205449C1F8AC01022000F0F3FA74
:1012F00001205149C1F8A801022000F0ECFA0020B9
:101300004D49C1F8A80110BD10B500204949091F79
:1013100008604748D0F8040C20F470404449C1F8F4
:10132000040C0846D0F8040C40F440503F49091D15
:10133000086001204049C1F8AC01022000F0CBFA5E
:1013400001203D49C1F8A801022000F0C4FA0020A4
:101350003949C1F8A80110BD70B505463348001DD4
:10136000006820F470403249C1F8040C0846D0F8F7
:10137000040C40F440502D49091D086000202D49FF
:10138000091F0860002417E0E8092A490860680678
:10139000050E022000F09FFA01202749C1F8A8019C
:1013A000022000F098FA00202249091F086002205C
:1013B00000F091FA601CC4B2082CE5DB70BD70B57A
:1013C000044600251948001D006820F470401849A3
:1013D000C1F8040C0846D0F8040C40F40040C1F8F1
:1013E000040C002617E000201249091F08600220A3
:1013F00000F071FA01201049C1F8A8016806050E35
:101400000C488038006808B1681CC5B2012000F0A3
:1014100062FA701CC6B2082EE5DB14B9FFF774FF40
:1014200001E0FFF749FF284670BD0000000C0140B5
:1014300000000140AC8121420080214270B5044689
:101440000D46FFF7BEFE2220FFF786FFFFF705FFE0
:101450002046FFF781FFFFF700FF2812FFF77CFF10
:10146000FFF7FBFEE8B2FFF777FFFFF7F6FEFFF7A7
:10147000CEFE70BD70B50446FFF7A3FE2220FFF735
:101480006BFFFFF7EAFE2046FFF766FFFFF7E5FE7A
:10149000FFF797FE2320FFF75FFFFFF7DEFE012037
:1014A000FFF78DFF05462D020020FFF788FF05435B
:1014B000FFF7ADFE284670BD10B5FFF769FE0020AE
:1014C000FFF7D8FF0446A4F5B040053837D1022114
:1014D0000846FFF7B3FF322000F01FFA4CF201017B
:1014E0000220FFF7ABFF4FF4167000F016FA48F633
:1014F0004F010520FFF7A2FF4FF4F0410720FFF74F
:101500009DFF08211320FFF799FF4FF4A1511520EB
:10151000FFF794FF4FF440411620FFF78FFF43F28F
:1015200026111C20FFF78AFF49F624412220FFF7ED
:1015300085FF4FF260614720FFF780FF01E0012047
:1015400010BD0020FCE710B54020FFF793FF0446D4
:101550004FF6F070044021464020FFF76FFF10BDAA
:1015600010B54020FFF786FF04464FF6F0700440A8
:1015700044F0010421464020FFF760FF10BD10B584
:101580000B20FFF777FF0446601210BD70B50546CB
:101590000520FFF76FFF04464FF6F070044005F09A
:1015A0000F00044321460520FFF748FF70BD70B5CA
:1015B00004460220FFF75EFF054614B145F480455E
:1015C00001E025F4804529460220FFF737FF70BD72
:1015D00070B505460520FFF74DFF044648F2FF00B1
:1015E000044044EA052421460520FFF727FF70BD8B
:1015F00070B505464220FFF73DFF04464FF6C07028
:1016000004402C4321464220FFF718FF70BD70B5FF
:1016100005464220FFF72EFF04464FF6FF00044028
:1016200044EA052421464220FFF708FF70BD70B54B
:1016300005460320FFF71EFF04464FF6F3700440F3
:1016400044EA850421460320FFF7F8FE70BD70B51B
:1016500005460320FFF70EFF04464FF6FC700440DA
:101660002C4321460320FFF7E9FE70BD2DE9F0472A
:101670000446002600270320FFF7FCFE054605F080
:101680001F05C5F3810705F003060EB90A2604E01D
:10169000012E01D1142600E0052617B942F2FC18EC
:1016A0000FE0012F01D0022F02D141F6B05808E01F
:1016B0005320FFF7DFFE804608EB880040044FEA26
:1016C0001048444501DABDE8F087A4EB080090FB20
:1016D000F6F01FFA80F9C9F3090945EA891545F0C2
:1016E000100529460320FFF7A9FE142000F015F984
:1016F00000BF0B20FFF7BEFE10F0800FF9D0E2E72D
:101700002DE9F0410025A8460320FFF7B3FE04466B
:10171000A711C4F3810804F003050DB90A2504E0FC
:10172000012D01D1142500E00525B8F1000F02D1EB
:1017300042F2FC1610E0B8F1010F02D0B8F1020F2E
:1017400002D141F6B05607E05320FFF793FE06465C
:1017500006EB86004004060C07FB056084B22046B9
:10176000BDE8F0817FB504460D460121022000F05E
:1017700026FEADF80840ADF804500020ADF80A0090
:10178000ADF8060001A9424801F046F901221146D0
:101790003F4801F08DFC1D208DF8000000208DF8E1
:1017A000010003208DF8020001208DF80300684637
:1017B00000F083FA0121364801F055FC7FBD10B5D9
:1017C0000121334801F0F1FE58B10121304801F008
:1017D000FDFE3048006808B9012000E000202D49D6
:1017E000086010BD7FB504460D460121042000F0BD
:1017F000E6FDADF80840ADF804500020ADF80A0051
:10180000ADF8060001A9244801F006F901221146AD
:10181000214801F04DFC1E208DF8000000208DF8BD
:10182000010003208DF8020001208DF803006846B6
:1018300000F043FA0021184801F015FC7FBD10B5F7
:101840000121154801F0B1FE08B30121124801F051
:10185000BDFE0020114908601149C1F880010D4901
:1018600028390860091F08600E490860091F0860D0
:101870000120091F0860091F08600649091F086048
:101880000020094908700021034801F0ECFB10BD5D
:1018900000040040BC012242000800408481214233
:1018A000008021429C0121420700002010B56FF00A
:1018B000040000F04FFA2A4800682A49B0FBF1F012
:1018C00029490870084600784FF47A714843264940
:1018D000891C088010BD244A127842434FF0E0234F
:1018E0005A6100229A611A46126942F001021A6195
:1018F00000BF4FF0E022116911F0010F02D011F486
:10190000803FF6D04FF0E022126922F001024FF042
:10191000E0231A6100229A617047134A921C1288D0
:1019200042434FF0E0235A6100229A611A4612693D
:1019300042F001021A6100BF4FF0E022116911F07C
:10194000010F02D011F4803FF6D04FF0E02212696F
:1019500022F001024FF0E0231A6100229A617047E1
:101960000C00002000127A002000002010B54FF477
:10197000A06000F09DF910BD014600BF704700BF98
:10198000B04A128812F0400FFAD0C2B2AD4B1B1D04
:101990001A80704710B586B00446012144F2040055
:1019A00000F000FDA74800F05FFD4FF40070ADF8B7
:1019B000140003208DF8160018208DF8170005A9D3
:1019C000A14800F045FA4FF48060ADF814000420FF
:1019D0008DF8170005A99C4800F03AFA25208DF8EB
:1019E000000003208DF801008DF8020001208DF821
:1019F0000300684600F061F901940020ADF808008A
:101A0000ADF80A00ADF80C00ADF810000C20ADF8F0
:101A10000E0001A98B4800F06AFD012240F2255119
:101A2000884800F0FBFD0121864800F0EBFD06B080
:101A300010BD10B540F22551824800F0D6FE0028B6
:101A400057D0804800F051FEC4B2242C05D10120AB
:101A50007E49087000207E4908807C480078012873
:101A600047D17C480078042804D1002079490870C7
:101A7000774908807648008810F4004F39D17548BE
:101A80000078002835D17248008810F4804F15D0B6
:101A90000A2C03D000206E4908802AE06C48008898
:101AA00040F400406A49088000206849087000221C
:101AB00040F22551634800F0B1FD1AE00D2C06D12B
:101AC0006348008840F480406149088011E0604824
:101AD0000088C0F30D0060490C545D480088401C2C
:101AE0005B49088008460088B0F5487F01DB00208C
:101AF000088010BD10B586B004460121042000F016
:101B000051FC0121480400F05AFC544800F0ACFCA0
:101B10000420ADF8140003208DF8160018208DF86D
:101B2000170005A9484800F093F90820ADF8140003
:101B300004208DF8170005A9434800F089F90194A5
:101B40000020ADF80800ADF80A00ADF80C00ADF8C3
:101B500010000C20ADF80E0001A9404800F0C7FCB1
:101B600026208DF8000003208DF801008DF802007A
:101B700001208DF80300684600F09FF8012240F232
:101B80002551364800F04AFD0121344800F03AFD65
:101B900006B010BD10B540F22551304800F025FECA
:101BA00000284ED02D4800F0A0FDC4B2242C05D151
:101BB00001202B49087000202A4908802848007815
:101BC00001283ED12748008810F4004F39D126481B
:101BD0000078002835D12348008810F4804F15D0B4
:101BE0000A2C03D000201F4908802AE01D480088E5
:101BF00040F400401B490880002019490870002269
:101C000040F22551154800F009FD1AE00D2C06D1CF
:101C10001448008840F480401249088011E01148BF
:101C20000088C0F30D0011490C540E480088401C78
:101C30000C49088008460088B0F5487F01DB002089
:101C4000088010BD00380140000801402600002037
:101C50002400002005000020F40100200044004082
:101C60002A00002028000020040000201405002085
:101C70000948804709480047FEE7FEE7FEE7FEE720
:101C8000FEE7FEE7FEE7FEE7FEE7FEE7044805495C
:101C9000054A064B704700005D0F0008310100083F
:101CA00098080020980E0020980A0020980A00202A
:101CB00032490143324A1160704770B50021002358
:101CC0000F22C4780CB32E4C246804F4E064C4F5ED
:101CD000E064210AC1F10403CA40447804FA03F124
:101CE0008478144021430901264C0678A1550478D4
:101CF00004F01F050124AC4005786D114FF0E0267B
:101D000006EB8505C5F8004109E0047804F01F04DE
:101D10000125A5401C4C0678761144F8265070BD6C
:101D20001A4A0A400243164B1B1F1A60704741B102
:101D3000134A121D126802434FF0E023C3F8102D1E
:101D400007E00F4A121D126882434FF0E023C3F8E8
:101D5000102D7047042808D14FF0E021096941F0A7
:101D600004014FF0E022116107E04FF0E021096922
:101D700021F004014FF0E022116170470000FA05E4
:101D80000CED00E000E400E080E100E080FFFF1FD8
:101D900010B50446C748844208D10121042000F050
:101DA0001BFB0021042000F017FB46E0C2488442E0
:101DB00008D10121082000F00FFB0021082000F0CD
:101DC0000BFB3AE0BD48844208D10121102000F00D
:101DD00003FB0021102000F0FFFA2EE0B8488442F7
:101DE00008D10121202000F0F7FA0021202000F086
:101DF000F3FA22E0B348844208D10121402000F0E8
:101E0000EBFA0021402000F0E7FA16E0AE488442E9
:101E100008D10121802000F0DFFA0021802000F0AD
:101E2000DBFA0AE0A948844207D10121801500F0BD
:101E3000D3FA0021A01500F0CFFA10BD10B5012192
:101E4000084600F0C9FA0021012000F0C5FA10BDD3
:101E5000F0B500220023002400250026002791F879
:101E600003C00CF00F0291F803C01CF0100F03D058
:101E700091F802C04CEA0202B1F800C01CF0FF0F5A
:101E800031D0066800242BE04FF0010C0CFA04F569
:101E9000B1F800C00CEA0503AB4220D1A5004FF019
:101EA0000F0C0CFA05F7BE4302FA05FC4CEA0606D5
:101EB00091F803C0BCF1280F06D14FF0010C0CFAC9
:101EC00004FCC0F814C00AE091F803C0BCF1480F4C
:101ED00005D14FF0010C0CFA04FCC0F810C0641CD2
:101EE000082CD1D30660B1F800C0BCF1FF0F34DD7F
:101EF000466800242EE004F1080C4FF0010E0EFAA3
:101F00000CF5B1F800C00CEA0503AB4221D1A500E5
:101F10004FF00F0C0CFA05F7BE4302FA05FC4CEA31
:101F2000060691F803C0BCF1280F05D104F1080C96
:101F30000EFA0CFEC0F814E091F803C0BCF1480F93
:101F400007D104F1080C4FF0010E0EFA0CFEC0F898
:101F500010E0641C082CCED34660F0BD4FF6FF7134
:101F60000180022181700421C17070470246002067
:101F700093680B4201D0012000E000207047014629
:101F8000886880B2704702460020D3680B4201D0B7
:101F9000012000E0002070470146C86880B2704709
:101FA00001617047416170470AB1016100E0416120
:101FB0007047C16070474FF480320A43826181618B
:101FC00082618269826970470022414B1A684FF62C
:101FD00080731A4042EA00120A433D4B1A60704770
:101FE0003C49C8617047F0B5002200230024002559
:101FF00000F00046B6F1004F02D1354EF46901E021
:10200000334E7468C0F3034582B200F44016B6F54F
:10201000401F08D124F070642D4E766826F070665B
:102020002B4F7E6012E000F48016B6F5801F06D1BB
:10203000032606FA05F39C4344F0706406E0460D5F
:10204000360102FA06F6B44344F0706421B1460D3D
:10205000360102FA06F6344300F00046B6F1004FAE
:1020600002D11B4EF46101E0194E7460F0BD30B531
:1020700000228B071C0F0F2303FA04F2144B0833C2
:102080008C1053F8244094438D1043F825408C1055
:1020900053F824308C07240F00FA04F423430C4C2B
:1020A00008348D1044F8253030BD0A49DC31086011
:1020B0007047000000080140000C01400010014082
:1020C0000014014000180140001C014000200140A4
:1020D0000000014000002042DB48006840F00100A1
:1020E000D949086008464068D8490840D649486040
:1020F00008460068D6490840D34908600846006889
:1021000020F4802008600846406820F4FE00486003
:102110004FF41F0088607047CB49096821F4803173
:10212000C94A11601146096821F480211160B0F597
:10213000803F03D0B0F5802F0ED106E0C249096878
:1021400041F48031C04A116007E0BF49096841F499
:10215000A021BD4A116000E000BF00BF704710B56C
:1021600001460022002300204A11012A02D1B64C68
:10217000236806E0022A02D1B34C236A01E0B24C84
:10218000636A01F01F02012494401C4201D0012027
:1021900000E0002010BD70B500240025002600BF1F
:1021A0003120FFF7DCFF0646641CB4F5A06F01D0B8
:1021B000002EF5D03120FFF7D2FF08B1012500E055
:1021C0000025284670BD00219F4A116821F0F801C2
:1021D00041EAC001116070479E49086070470022C3
:1021E000994B5A6822F47C1240EA01031A43964B39
:1021F0005A6070479749086670470021924A5168B3
:1022000021F003010143516070478F48406800F09E
:102210000C00704700218C4A516821F0F001014305
:10222000516070470021884A516821F4E061014300
:10223000516070470021844A516821F4605141EA9D
:10224000C0015160704729B17F4A527A02437E4BE8
:102250005A7206E07C4A527AC343DBB21A407A4B88
:102260005A7270477B49D831086070470021764A1E
:10227000516821F440410143516070470021724A86
:1022800020321170704A82F82010012802D00428F0
:102290000AD104E001216C4A2032117005E00521C9
:1022A000694A2032117000E000BF00BF70476A49E0
:1022B000086070476449096A0143634A11627047C4
:1022C000654944390860704730B500210022002379
:1022D00000245D4D6D6805F00C0121B1042905D085
:1022E000082923D105E05D4D056022E05B4D0560C6
:1022F0001FE0554D6D6805F47012534D6D6805F47F
:102300008033022505EB92421BB9554D55430560BC
:102310000BE04D4D6D6815F4003F03D0504D554313
:10232000056002E04D4D5543056002E04B4D0560F0
:1023300000BF00BF444D6D6805F0F0010909494D2B
:102340006C5C0568E54045603F4D6D6805F4E061F3
:10235000090A444D6C5C4568E54085603A4D6D68FE
:1023600005F46051C90A3F4D6C5C4568E540C560A5
:10237000354D6D6805F44041890B3A4D10356C5C64
:10238000C568B5FBF4F5056130BD29B12E4A526927
:1023900002432D4B5A6104E02B4A526982432A4B77
:1023A0005A61704729B1284A92690243264B9A61C3
:1023B00004E0254A92698243234B9A61704729B110
:1023C000214AD2690243204BDA6104E01E4AD269F5
:1023D00082431D4BDA61704729B11B4AD268024320
:1023E000194BDA6004E0184AD2688243164BDA606F
:1023F000704729B1144A12690243134B1A6104E071
:10240000114A12698243104B1A61704712494039D0
:10241000086070470F49C86470470B49C87170471E
:102420000948406A40F08070074948627047014699
:102430000020054A92680A4201D0012000E00020F5
:102440007047014988727047001002400000FFF891
:10245000FFFFF6FE000042428004424200127A0072
:1024600000093D003000002010B50446FB488442BE
:1024700009D101218803FFF7AFFF00214FF480400D
:10248000FFF7AAFF32E0F648844209D1012148044F
:10249000FFF7AFFF00214FF40030FFF7AAFF25E060
:1024A000F048844209D101218804FFF7A2FF0021EE
:1024B0004FF48020FFF79DFF18E0EB48844209D1DC
:1024C0000121C804FFF795FF00214FF40020FFF71A
:1024D00090FF0BE0E548844208D101210805FFF791
:1024E00088FF00214FF48010FFF783FF10BD2DE916
:1024F000F04786B004460D460026002700BFB146CF
:10250000B246A88900B100BFA246268A4CF6FF70E9
:102510000640E88806432682A6894EF6F310064058
:10252000A88829890843698908430643A681A68AA1
:102530004FF6FF400640A8890643A68201A8FFF790
:10254000C3FE5446C548824501D1049F00E0039F65
:10255000A08910F4004F08D007EBC70000EB07106C
:1025600029684900B0FBF1F807E007EBC70000EB72
:10257000071029688900B0FBF1F86420B8FBF0F07F
:1025800006013009642101FB1089A08910F4004F75
:1025900009D0322101EBC9006421B0FBF1F000F059
:1025A0000700064308E0322101EB09106421B0FB6B
:1025B000F1F000F00F000643268106B0BDE8F08779
:1025C0004FF41651016000218180C18001810C21EE
:1025D000418100218181704710B50022028A4FF2AB
:1025E000FF031A400B884C8823438C882343CC88F4
:1025F00023431A43028210BD002101804180818063
:10260000C180704721B1828942F40052828104E086
:1026100082894DF6FF731A4082817047F0B500241D
:10262000002500260023A1F510676A3F00D100BFF6
:102630000346C1F3421401F01F05012707FA05F60E
:10264000012C01D10C3304E0022C01D1103300E045
:1026500014331AB11F6837431F6002E01F68B74385
:102660001F60F0BD10B51AB1838A0B43838204E06A
:10267000838ACC43A4B22340838210BD028A4FF6E2
:10268000F0731A400282028A0A43028270478289EA
:102690004FF2FF731A40828182890A438281704718
:1026A00021B1828942F00202828104E082894FF6E0
:1026B000FD731A4082817047028A4FF6DF731A4019
:1026C0000282028A0A430282704721B1028A42F4DE
:1026D0008042028204E0028A4BF6FF731A400282B3
:1026E0007047C1F308028280704701468888C0F3B2
:1026F00008007047818941F0010181817047028B98
:10270000D2B20283028B42EA012202837047028B1B
:1027100002F47F420283028B0A430283704721B195
:10272000828A42F02002828204E0828A4FF6DF73BE
:102730001A408282704721B1828A42F0100282825E
:1027400004E0828A4FF6EF731A408282704721B10B
:10275000828A42F00802828204E0828A4FF6F7738E
:102760001A408282704721B1828942F400428281FC
:1027700003E08289C2F30E028281704721B1828A0E
:1027800042F40062828204E0828A4FF2FF731A40B0
:1027900082827047828A4FF6FB731A408282828A55
:1027A0000A438282704721B1828A42F00202828209
:1027B00004E0828A4FF6FD731A4082827047024617
:1027C0000020B1F5007F00D100BF13880B4201D07B
:1027D000012000E00020704701F40072B2F5007F94
:1027E00000D100BFCA430280704770B50246002383
:1027F000002400250020A1F510666A3E00D100BF2C
:10280000C1F3421501F01F04012606FA04F4012D5C
:1028100002D19689344006E0022D02D1168A344056
:1028200001E0968A34400B12012606FA03F316885B
:10283000334014B10BB1012000E0002070BD10B591
:1028400000220023A1F510646A3C00D100BF0A12E7
:1028500001249440A3B2DC43048010BD0038014041
:102860000044004000480040004C00400050004040
:1028700010B50446FF48844208D10121C014FFF777
:10288000ABFD0021E014FFF7A7FDC4E0B4F1804FD9
:1028900008D101210846FFF7ACFD00210120FFF718
:1028A000A8FDB8E0F448844208D101210220FFF7D6
:1028B000A0FD00210220FFF79CFDACE0EF48844220
:1028C00008D101210420FFF794FD00210420FFF727
:1028D00090FDA0E0EA48844208D101210820FFF7DA
:1028E00088FD00210820FFF784FD94E0E54884423C
:1028F00008D101211020FFF77CFD00211020FFF7F7
:1029000078FD88E0E048844208D101212020FFF7CB
:1029100070FD00212020FFF76CFD7CE0DB48844245
:1029200008D101214014FFF757FD00216014FFF783
:1029300053FD70E0D648844209D10121C804FFF755
:102940004BFD00214FF40020FFF746FD63E0D14826
:10295000844209D101210805FFF73EFD00214FF413
:102960008010FFF739FD56E0CB48844209D10121A0
:102970004805FFF731FD00214FF40010FFF72CFD53
:1029800049E0C648844208D101214020FFF731FDCB
:1029900000214020FFF72DFD3DE0C148844208D1D1
:1029A00001218020FFF725FD00218020FFF721FD78
:1029B00031E0BC48844208D101218015FFF719FDA0
:1029C0000021A015FFF715FD25E0B748844209D185
:1029D00001210804FFF700FD00214FF48030FFF7CC
:1029E000FBFC18E0B148844209D101214804FFF7FB
:1029F000F3FC00214FF40030FFF7EEFC0BE0AC4895
:102A0000844208D101218804FFF7E6FC00214FF43D
:102A10008020FFF7E1FC10BD00220288954B984210
:102A20000ED09A4B98420BD0B0F1804F08D0924B09
:102A3000984205D0914B984202D0914B984204D1D4
:102A40004FF68F731A404B881A438E4B984207D02B
:102A50008D4B984204D04FF6FF431A40CB881A435F
:102A600002808B8883850B880385824B98420BD02C
:102A7000864B984208D08C4B984205D08B4B98429D
:102A800002D08B4B984201D10B7A038601238382BB
:102A9000704770B5002200230024058C4FF6FE76A7
:102AA00035400584038C8488028B4FF68F752A404D
:102AB000B51E2A400D882A43751E2B400D892B43D5
:102AC0004D882B436B4DA8420BD0704DA84208D0C7
:102AD000754DA84205D0754DA84202D0744DA8424C
:102AE00013D14FF6F7752B404D892B434FF6FB75ED
:102AF0002B408D882B434FF6FF652C404FF6FF553A
:102B00002C408D892C43CD892C4384800283CD8831
:102B10008586038470BD70B5002200230024058CD7
:102B20004FF6EF7635400584038C8488028B48F697
:102B3000FF752A404FF6FF452A400D882D0642EAD0
:102B400015424FF6DF752B400D892D0543EA1543DD
:102B50004D882D0543EA1543464DA84202D04B4D02
:102B6000A8421BD14FF67F752B404D892D0543EAB6
:102B700015434FF6BF752B408D882D0543EA15434D
:102B80004FF6FF352C404FF2FF752C408D89AD0478
:102B900044EA1544CD89AD0444EA15448480028397
:102BA000CD880587038470BD70B500220023002402
:102BB000058C4FF6FF6635400584038C8488828B34
:102BC0004FF68F752A404FF6FC752A400D882A4330
:102BD0004FF6FF552B400D892D0643EA15434D88CE
:102BE0002D0643EA1543234DA84202D0274DA842A3
:102BF0001BD14FF2FF752B404D892D0643EA15433B
:102C00004FF6FF352B408D882D0643EA15434EF6CF
:102C1000FF752C404DF6FF752C408D892D0544EA3B
:102C20001544CD892D0544EA154484808283CD88DE
:102C30008587038470BD70B5002200230024058CB5
:102C40004EF6FF7635400584038C8488828B48F6E7
:102C5000FF752A404FF6FF452A400D882D0642EAAF
:102C600015424DF6FF752B400D892D0743EA15439C
:102C70004D881FE0002C0140000400400008004087
:102C8000000C0040001000400014004000340140DF
:102C9000004C014000500140005401400018004029
:102CA000001C004000200040004001400044014062
:102CB000004801402D0743EA1543F84DA84202D0D1
:102CC000F74DA84206D14BF6FF752C408D89AD0516
:102CD00044EA154484808283CD88A0F84050038460
:102CE00070BD828B4FF2FF331A408283828B0B06BA
:102CF00042EA134282837047F0B500240025002683
:102D0000078C4EF6FF7C07EA0C070784848B058C42
:102D10000F073E0C40F6FF473C40170644EA1744B5
:102D20001F0744EA1744DD4FB8420ED0DC4FB842CB
:102D30000BD0B0F1804F08D0DA4FB84205D0DA4F4F
:102D4000B84202D0D94FB84206D14DF6FF773D4088
:102D500046F480573D4305E047F6FF573D4041F4B8
:102D600080573D4384830584F0BD828B4FF6F37317
:102D70001A408283828B0A4382837047F0B5002415
:102D800000250026078C4FF6FF6C07EA0C07078426
:102D9000848B058C0F063E0C4FF60C773C401F05CC
:102DA00042EA17473C43BD4FB8420ED0BC4FB84231
:102DB0000BD0B0F1804F08D0BA4FB84205D0BA4F0F
:102DC000B84202D0B94FB84206D14FF6FF573D4046
:102DD00046F480773D4305E04FF2FF573D4041F414
:102DE00080773D4384830584F0BD028B4FF2FF332F
:102DF0001A400283028B0B0642EA13420283704799
:102E0000F0B5002400250026078C4FF6EF7C07EA7A
:102E10000C070784048B058C0F053E0C40F6FF471A
:102E20003C401F0744EA1744170644EA17449B4FE7
:102E3000B8420ED09A4FB8420BD0B0F1804F08D0B4
:102E4000984FB84205D0984FB84202D0974FB84239
:102E500006D14FF6DF773D4046F010073D4305E0D1
:102E60004FF65F773D4041F010073D4304830584F2
:102E7000F0BD028B4FF6F3731A400283028B0A43B4
:102E800002837047F0B500240025068C4FF6FE77CC
:102E90003E400684048B058C4FF60C7634401E05AC
:102EA00042EA164634437D4EB0420ED07C4EB042CC
:102EB0000BD0B0F1804F08D07A4EB04205D07A4E98
:102EC000B04202D0794EB04206D14FF6FD76354081
:102ED00041F00106354305E04FF6F576354041F007
:102EE0000106354304830584F0BD70B504460D46E4
:102EF0006A4884420ED06A4884420BD0B4F1804FB5
:102F000008D06848844205D06748844202D06748A8
:102F1000844200D100E000BF288850B92B89AA88DC
:102F200069882046FFF7AEFFE9882046FFF7A1FF3A
:102F300025E0288804280AD12B89AA886988204698
:102F4000FFF75EFFE9882046FFF74FFF17E028886C
:102F500008280AD12B89AA8869882046FFF70EFF26
:102F6000E9882046FFF701FF09E02B89AA886988D4
:102F70002046FFF7C1FEE9882046FFF7B2FE70BD8C
:102F80002DE9F04104460D4600260127688808B95E
:102F9000022600E00026A888012801D1022700E0CF
:102FA00001272888A0B92B89AA8869882046FFF7BD
:102FB00069FFE9882046FFF75CFF2B893A463146D6
:102FC0002046FFF71DFFE9882046FFF70EFF13E0BC
:102FD0002B89AA8869882046FFF712FFE9882046D6
:102FE000FFF703FF2B893A4631462046FFF74AFF99
:102FF000E9882046FFF73DFFBDE8F0810A884B884D
:103000001A438B881A43CB881A430B891A434B897E
:103010001A438B891A43A0F8442070474FF6FF717A
:10302000818000210180C1804180017270470021B0
:10303000018041808180C180018141818181C18184
:103040007047002101804180012181800021C180E1
:10305000018170470021018041808180C180018110
:1030600041818181704721B1028842F001020280D2
:1030700004E002884FF6FE731A400280704731B1B7
:10308000B0F8442042F40042A0F8442005E0B0F833
:103090004420C2F30E02A0F844207047002C0140E7
:1030A000003401400004004000080040000C0040D3
:1030B00010B51AB183890B43838104E08389CC4323
:1030C000A4B22340838110BD8182704741EA02038C
:1030D000A0F84830704710B51AB183890B4383813B
:1030E00004E08389CC43A4B22340838110BD0189CD
:1030F0004FF6F872114001817047002202894FF6A5
:103100008F731A400A430281704730B504460D465A
:1031100029462046FFF7F1FF208940F00700208173
:1031200030BD2DE9F04104460D4616461F46602D80
:1031300006D13B46012231462046FFF761FE05E0FD
:103140003B46012231462046FFF79CFE2946204699
:10315000FFF7D3FF208940F007002081BDE8F08110
:1031600030B500240489E4B21D0642EA15450D433A
:103170002C43048130BD2DE9F04104460D4616462E
:10318000984600274346324629462046FFF7E8FF87
:1031900027894FF6F870074047F007074FF68F7002
:1031A000074047F070072781BDE8F081F0B504467D
:1031B0000D4616461F463B46324629462046FFF737
:1031C000CFFF208940F480402081F0BD01858282BC
:1031D0007047002202884FF68F731A400A4302801C
:1031E0007047F0B50024002500260489058B068C65
:1031F0004FF6F8773C400C434FF6FC473D4040F219
:1032000001173D434FF6DD773E401F0542EA174761
:103210003E43048105830684F0BD0022028B4FF6F5
:103220008F731A400A43028370470022028B48F6CC
:10323000FF731A400B0642EA1342028370470022D2
:10324000828B4FF68F731A400A43828370470022A5
:10325000828B48F6FF731A400B0642EA13428283C0
:10326000704721B1028842F08002028004E00288A7
:103270004FF67F731A400280704721B1828842F076
:103280000402828004E082884FF6FB731A40828039
:10329000704721B1828842F00802828004E082886F
:1032A0004FF6F7731A408280704721B1828842F04E
:1032B0000102828004E082884FF6FE731A40828009
:1032C00070470022028B4FF6F7731A400A430283BD
:1032D00070470022028B4FF2FF731A400B0642EA3E
:1032E0001342028370470022828B4FF6F7731A4015
:1032F0000A43828370470022828B4FF2FF731A4089
:103300000B0642EA1342828370470022028B4FF67B
:10331000FB731A400A43028370470022028B4FF668
:10332000FF331A400B0642EA134202837047002221
:10333000828B4FF6FB731A400A4382837047002248
:10334000828B4FF6FF331A400B0642EA1342828308
:1033500070470022028B4FF67F731A400A430283A4
:1033600070470022028BC2F30E020B0642EA1342A0
:10337000028370470022828B4FF67F731A400A4304
:10338000828370470022828BC2F30E020B0642EA50
:103390001342828370470022028C4FF6FD731A405D
:1033A0000A43028470470022028C4FF6F7731A40DA
:1033B0000A43028470470022028C4FF6DF731A40E2
:1033C0000B0542EA1342028470470022028C4FF63A
:1033D0007F731A400B0542EA1342028470470022B1
:1033E000028C4FF6FF531A400B0642EA1342028446
:1033F00070470022028C4FF2FF731A400B0642EA1C
:103400001342028470470022028C4DF6FF731A406B
:103410000B0742EA13420284704730B500230124AF
:103420008C40A3B2048CDD43ADB22C400484048CE8
:1034300002FA01F5ADB22C43048430BD30B500234F
:1034400004248C40A3B2048CDD43ADB22C40048430
:10345000048C02FA01F5ADB22C43048430BD70B582
:103460000023002403461846183301258D40ACB2D2
:10347000058CE643B6B23540058409B1082909D167
:1034800003EB61031D6825F070051D601D68154381
:103490001D600CE00D1FADB203EB65031D6825F444
:1034A000E0451D601D68160645EA16451D6070BDA5
:1034B00021B1028842F00202028004E002884FF645
:1034C000FD731A400280704721B1028842F0040265
:1034D000028004E002884FF6FB731A4002807047B6
:1034E00021B1828842F08002828004E082884FF617
:1034F0007F731A408280704702884FF6F7731A4034
:10350000028002880A430280704782884FF68F73D8
:103510001A40828082880A438280704702894FF66F
:10352000F8731A40028102890A43028170470289B6
:103530004FF67F731A40028102890A430281704765
:103540008184704781857047818670470187704705
:1035500081877047A0F84010704702884FF6FF43FC
:103560001A40028002880A43028070470146888E12
:1035700070470146088F70470146888F70470146A3
:10358000B1F8400070470146888C70470146088DAD
:10359000704702460020138A0B4201D0012000E050
:1035A00000207047CA430282704730B502460020AF
:1035B00000230024158A05EA0103958905EA010420
:1035C00013B10CB1012000E0002030BDCA430282DB
:1035D0007047000010B58CB004461E230BAA03A947
:1035E000204600F01CFE0090009810B101200CB0A5
:1035F00010BD9DF82C00044400200B900EE06048A4
:103600009DF82C2050F8221003A800F05FFD00B9AF
:1036100008E09DF82C00401CC0B20B909DF82C00D7
:103620000828ECDB00BF9DF82C0007287ED2DFE8DD
:1036300000F00405395B8BA6A50000BF51A001F086
:1036400017F851A001F014F85FA001F011F86EA076
:1036500001F00EF87CA001F00BF88BA001F008F847
:1036600099A001F005F8A6A001F002F8ABA000F0C7
:10367000FFFFB0A000F0FCFFB4A000F0F9FFB9A07C
:1036800000F0F6FFBDA000F0F3FFC3A000F0F0FFD4
:10369000CEA000F0EDFFDAA000F0EAFFE5A000F018
:1036A000E7FFAEE237A000F0E3FFF2A000F0E0FF9A
:1036B00000200B900EE0FF4800689DF82C2000EBE6
:1036C000C2004168FCA000F0D3FF9DF82C00401C14
:1036D000C0B20B90F748007D9DF82C108842EADCC0
:1036E00028A000F0C5FF8CE226A000F0C1FFF4A0E6
:1036F00000F0BEFF00200B901CE0EE4909689DF829
:103700002C2001EBC20101AB02AA486803A900F01A
:10371000AAFDE84800689DF82C1050F8312003A954
:10372000F7A000F0A5FF9DF82C0000E067E2401C28
:10373000C0B20B90DF48007D9DF82C108842DCDC85
:1037400010A000F095FF5CE20EA000F091FF0BAA24
:1037500003A9204600F08CFE9DF82C0060B9694654
:1037600003A800F0E6FC0B909DF82C0028B9E9A016
:10377000009900F07DFFE2E1DFE1D1E111E2E3E158
:10378000440000200D0A00002D2D2D2D2D2D2D2D56
:103790002D2D2D2D2D2D2D2D2D2D2D2D2D2D2D2D59
:1037A00055534D4152542056322E382D2D2D2D2D4E
:1037B0002D2D2D2D2D2D2D2D2D2D2D2D2D2D2D2D39
:1037C0002D2D2D200D0A00002020202055534D4185
:1037D0005254CAC7D3C9414C49454E54454BBFAA60
:1037E000B7A2B5C4D2BBB8F6C1E9C7C9B5C4B4AEB7
:1037F000BFDAB5F7CAD4BBA5BDBBD7E9BCFE2CCD9B
:10380000A8B9FD200D0A0000CBFC2CC4E3BFC9D22F
:10381000D4CDA8B9FDB4AEBFDAD6FACAD6B5F7D3BF
:10382000C3B3CCD0F2C0EFC3E6B5C4C8CEBACEBAEB
:10383000AFCAFD2CB2A2D6B4D0D02ED2F2B4CB2CCB
:10384000C4E3BFC90D0A0000D2D4CBE6D2E2B8FC73
:10385000B8C4BAAFCAFDB5C4CAE4C8EBB2CECAFD9B
:1038600028D6A7B3D6CAFDD7D62831302F3136BDDA
:10387000F8D6C629A1A2D7D6B7FBB4AEA1A2BAAFDB
:10388000CAFDC8EB0D0A0000BFDAB5D8D6B7B5C877
:10389000D7F7CEAAB2CECAFD292CB5A5B8F6BAAFD5
:1038A000CAFDD7EEB6E0D6A7B3D63130B8F6CAE433
:1038B000C8EBB2CECAFD2CB2A2D6A7B3D6BAAFCA55
:1038C000FDB7B5200D0A0000BBD8D6B5CFD4CABE0F
:1038D0002ED0C2D4F6B2CECAFDCFD4CABEBDF8D661
:1038E000C6C9E8D6C3B9A6C4DC2CD0C2D4F6BDF88C
:1038F000D6C6D7AABBBBB9A6C4DC2E0D0A000000F1
:10390000BCBCCAF5D6A7B3D63A7777772E6F706569
:103910006E6564762E636F6D0D0A000055534D4140
:103920005254D3D036B8F6CFB5CDB3C3FCC1EE3ABE
:103930000D0A00003F3A20202020BBF1C8A1B0EFC3
:10394000D6FAD0C5CFA20D0A0000000068656C70E1
:103950003A20BBF1C8A1B0EFD6FAD0C5CFA20D0A6C
:10396000000000006C6973743A20BFC9D3C3B5C4AA
:10397000BAAFCAFDC1D0B1ED0D0A0A0069643A20A0
:103980002020BFC9D3C3BAAFCAFDB5C44944C1D012
:10399000B1ED0D0A0A0000006865783A2020B2CE29
:1039A000CAFD3136BDF8D6C6CFD4CABE2CBAF3B8DC
:1039B000FABFD5B8F12BCAFDD7D6BCB4D6B4D0D097
:1039C000BDF8D6C6D7AABBBB0D0A0A006465633A28
:1039D0002020B2CECAFD3130BDF8D6C6CFD4CABE83
:1039E0002CBAF3B8FABFD5B8F12BCAFDD7D6BCB400
:1039F000D6B4D0D0BDF8D6C6D7AABBBB0D0A0A0034
:103A0000C7EBB0B4D5D5B3CCD0F2B1E0D0B4B8F1F7
:103A1000CABDCAE4C8EBBAAFCAFDC3FBBCB0B2CEE4
:103A2000CAFDB2A2D2D4BBD8B3B5BCFCBDE1CAF8C2
:103A30002E0D0A002D2D2D2D2D2D2D2D2D2D2D2D25
:103A40002D2D2D2D2D2D2D2D2D2D2D2D2D2D414C73
:103A500049454E54454B2D2D2D2D2D2D2D2D2D2DE4
:103A60002D2D2D2D2D2D2D2D2D2D2D2D2D2D2D2093
:103A70000D0A00002D2D2D2D2D2D2D2D2D2D2D2D13
:103A80002D2D2D2D2D2D2D2D2D2D2D2D2DBAAFCABA
:103A9000FDC7E5B5A52D2D2D2D2D2D2D2D2D2D2D34
:103AA0002D2D2D2D2D2D2D2D2D2D2D2D2D2D2D2D46
:103AB000200D0A00A400002025730D0A000000005C
:103AC0002D2D2D2D2D2D2D2D2D2D2D2D2D2D2D2D26
:103AD0002D2D2D2D2D2D2D2D2DBAAFCAFD20494474
:103AE000202D2D2D2D2D2D2D2D2D2D2D2D2D2D2D13
:103AF0002D2D2D2D2D2D2D2D2D2D2D2D200D0A0073
:103B000025732069642069733A0D0A3058253038CE
:103B1000580D0A004845583A305825580D0A0000FB
:103B20009DF82C00042801D0022060E5F5A000F0EB
:103B30009FFD0120F849C87501E0022057E5AFF26A
:103B4000BC3000F095FD5CE0AFF2C83000F090FDB5
:103B50000BAA03A9204600F08BFC9DF82C00C8B9E5
:103B6000694603A800F0E5FA0B909DF82C0020B9F7
:103B7000EAA0009900F07CFD0EE09DF82C000428DE
:103B800001D0022033E5E8A000F072FD0020E249F8
:103B9000C87501E002202AE5AFF2184000F068FD88
:103BA0002FE0AFF2204000F063FD0BAA03A92046EE
:103BB00000F05EFC9DF82C00D8B9694603A800F01F
:103BC000B8FA0B909DF82C0088B9D348C07D012825
:103BD00006D1009801460268D8A000F049FD0AE02D
:103BE000009801460268D9A000F042FD03E00220DF
:103BF000FDE40220FBE4D4A000F03AFD01E0012046
:103C0000F5E400BF0020F2E410B501218807FFF7BA
:103C1000CCFC10B1C0490869804701218807FFF733
:103C2000D5FC10BD7FB504460D4601210846FEF7C0
:103C3000C6FB41F28830ADF8080041F61F40ADF8F0
:103C400004000020ADF80A00ADF8060001A94FF00D
:103C50008040FEF7E1FE012241218807FFF728FAA4
:103C60001C208DF8000003208DF801008DF8020063
:103C700001208DF803006846FEF71FF800214FF081
:103C80008040FFF7F0F97FBD10B5044604EBC40097
:103C900000EB04100122C2EB800081B24FF47A7075
:103CA000FFF7C0FF01209C49C87510BD30B595B025
:103CB000044613AB12AA09A9204600F0D4FA05461F
:103CC00015B1284615B030BD0020149026E0924969
:103CD00009689DF8502001EBC20113AB11AA486896
:103CE00001A900F0C0FA05460DB12846EAE709A986
:103CF00001A800F0EBF960B99DF844009DF8481068
:103D0000884201DD0220DDE79DF850008249887578
:103D10000AE09DF85000401CC0B214907E48007D1F
:103D20009DF850108842D2DC00BF7B48007D9DF892
:103D30005010884201D10420C4E714A9204600F0A5
:103D400001FC05460DB12846BCE79DF850007249BC
:103D500048750020B6E7F0B59BB06F48847D007DC4
:103D6000A04201DC1BB0F0BD6B49096801EBC40146
:103D700007AB08AA486809A900F075FA09A976A056
:103D800000F076FC002544E06348018B0120A84048
:103D900001421BD0222172A000F06AFC284600F0EC
:103DA000C4FB5D492431471839466EA000F060FC21
:103DB00022216BA000F05CFC284600F0B6FB5649BF
:103DC0002431084411A941F8250018E0284600F0E4
:103DD000ACFB51492431085811A941F825004E483F
:103DE000C07D30B911A850F825105FA000F040FC4C
:103DF00005E011A850F825105CA000F039FC9DF8F2
:103E00002000401EA84202D05AA000F031FC681CDD
:103E1000C5B29DF820008542B6DB57A000F028FC13
:103E20003D48407D0B280DD2DFE800F0060D151E41
:103E300027323F4E5DA8B9003749096851F8340070
:103E400080470646BEE0344A126852F83410119892
:103E500088470646B6E0304B1B6853F83420DDE94E
:103E6000110190470646ADE02B4F3F6857F83430BC
:103E700011A807C898470646A4E0DFF89CC0DCF804
:103E800000C05CF8347011A80FC8B847064699E026
:103E9000159BDFF884C00093DCF800C05CF8347038
:103EA00011A80FC8B84706468CE0DDE91523DFF8F6
:103EB00068C0CDE90023DCF800C05CF8347011A8BC
:103EC0000FC8B84706467DE015A90EC9DFF848C0FF
:103ED0008DE80E00DCF800C05CF8347011A80FC843
:103EE000B84706466EE015A80FC8DFF82CC08DE86D
:103EF0000F00DCF800C05CF8347011A80FC8B84798
:103F000006465FE03136BDF8D6C6B2CECAFDCFD484
:103F1000CABE210D0A000000A40000204445433A17
:103F2000256C750D0A0000003130BDF8D6C6B2CE42
:103F3000CAFDCFD4CABE210D0A0000002A2830587D
:103F40002558293D305825580D0A00002A28256497
:103F5000293D25640D0A00000D0A25732800000084
:103F60002563000025730000256C75003058255826
:103F7000000000002C0000002900000016A80FC857
:103F800001AF0FC7159BDFF8ECC00093DCF800C051
:103F90005CF8347011A80FC8B847064612E017A89D
:103FA0000FC802AF0FC7DDE91523DFF8C8C0CDE9A0
:103FB0000023DCF800C05CF8347011A80FC8B847C3
:103FC000064600BF00BF9DF81C0001280CD12948FF
:103FD000C07D20B9314628A000F04AFB07E03146F9
:103FE00027A000F045FB02E024A000F041FBB9E669
:103FF00070B52648008810F4004F35D0234800885B
:10400000C5B20020224948551A488168204888478F
:1040100004461CB91749C868804722E01C48FFF7CE
:10402000D9FA0546012D00D02C46002C19D0012CC0
:1040300006D0022C08D0032C0AD0042C10D10BE09F
:1040400014A000F015FB0BE015A000F011FB07E039
:1040500016A000F00DFB03E017A000F009FB00BF65
:1040600000BF00200949088070BD014608687047FC
:1040700001607047A40000203D256C753B0D0A00CF
:104080003D305825583B0D0A000000002400002058
:10409000F4010020BAAFCAFDB4EDCEF3210D0A0041
:1040A000B2CECAFDB4EDCEF3210D0A00B2CECAFDE8
:1040B000CCABB6E0210D0A00CEB4D5D2B5BDC6A5B5
:1040C000C5E4B5C4BAAFCAFD210D0A0002460AE034
:1040D00010780B78984201D001207047107800B911
:1040E00002E0521C491CF3E700BF0020F5E706E0A0
:1040F00002780A70027802B902E0401C491CF7E716
:1041000000BF70470146002005E00A7802B903E0CD
:10411000421CD0B2491CF8E700BF704710B50246F8
:10412000012000E050430B00A1F10104E1B2F9D1FC
:1041300010BD2DE9F04304460D4600274FF00A0953
:10414000A0460020286027E098F80000392803DC0A
:1041500098F8000030280DDA98F80000462803DCB3
:1041600098F80000412805DA98F8000058280AD18C
:10417000012F08D198F80000412801DB4FF0100909
:10418000781CC7B206E098F8000000B905E00120ED
:10419000BDE8F08308F10108D6E700BFA046B9F1F9
:1041A000100F12D1032F01DA0220F1E798F8000076
:1041B000302808D198F80100582804D108F10208E5
:1041C000B81EC7B204E00320E2E70FB90420DFE71E
:1041D00021E00FB1781EC7B298F80000392808DC3A
:1041E00098F80000302804DB98F80000A0F13006B1
:1041F00003E098F80000A0F1370639464846FFF77B
:104200008DFF296806FB0010286008F1010898F866
:10421000000000B900E0DCE700BF0020B8E710B5FF
:104220000446002010700BE020780870641C491CC4
:104230001078401C10701078984201DB012010BDEE
:104240002078202802D020780028EDD100200870A6
:10425000F5E7014600E0491C0878202801D1002933
:10426000F9D1087870472DE9FF4F86B004460D4616
:104270001E464FF000080020059082460120049061
:10428000002001900090A1462AE099F80000202823
:1042900020D0009800F07F0005281BDA009818B99C
:1042A000009840F080000090009800F07F00042803
:1042B00004D199F800002A2800D015E099F80010E0
:1042C000009800F07F0002AA11540098401CC0B270
:1042D000009003E00098852800D105E009F101096C
:1042E00099F800000028D0D100BF009888B10020C4
:1042F000009901F07F0102AA5054D9A102A8FFF74A
:10430000E5FE10B90020307001E00120307000207F
:1043100000900027A1460FE009F10109781CC7B2FF
:1043200099F80000202807D14846FFF792FF8346FE
:10433000BBF1280F00D0059799F80000282803D07A
:1043400099F800000028E7D1A146059810B105981A
:10435000401C81440027BB4671E099F8000008B971
:1043600001276DE099F80000282807D1BBF1000F64
:1043700004D108F1010000F0FF081FE099F80000E7
:1043800029280FD1BBF1000F0CD1B8F1000F04D0D8
:10439000A8F1010000F0FF0800E00127B8F1000FCC
:1043A0000CD14DE099F80000222807D1BBF1000F95
:1043B00001D1012000E0002000F0FF0BB8F1000F58
:1043C00008D199F80000202837D099F8000028700B
:1043D0006D1C32E099F800002C2806D101200490D1
:1043E0000098401CC0B2009019E099F80000202805
:1043F00015D099F80000282811D0009858B90198D4
:10440000052808DA99F8000002A9019A8854019851
:10441000401CC0B201900498401CC0B20490B8F196
:10442000010F0AD10498022807D10498401CC0B299
:1044300004900AF1010000F0FF0A09F101098CE77C
:1044400000BFBAF1010F0AD1002002A9019A8854D5
:1044500083A102A8FFF73AFE08B94FF0000A0898B6
:1044600080F800A00020287038460AB0BDE8F08F20
:10447000F0B5034600200024002500264FE01F78F9
:104480002C2F01D106B901241F78292F01D01F78C4
:104490000FB906B944E0002D34D11F78302F02DB6C
:1044A0001F78392F11DD1F78612F02DB1F78662FEF
:1044B0000BDD1F78412F02DB1F78462F05DD1F78AB
:1044C000582F02D01F78782F0CD104B128E01F7824
:1044D000612F03DB1F78203F0F7001E01F780F7002
:1044E000491C19E01F78222F04D104B118E00125DE
:1044F000012611E01F78202F0ED01F782C2F0BD013
:10450000FF250DE01F78222F00D1002604B107E01F
:1045100016B11F780F70491C471CF8B25B1CAEE740
:1045200000BF00270F701570F0BD0146002000226B
:1045300005E04D4B9B5C0344D8B2531CDAB28A426F
:10454000F7DB70472DE9F043B5B004460D464FF058
:104550000008002604E0002143488155701CC6B2C3
:104560000A2EF8DB06E0641C207818B9012035B06B
:10457000BDE8F08320782828F5D1641C69E034AACE
:1045800069462046FFF774FF064634449DF8D00084
:1045900020B101282CD0FF2854D151E09DF8000013
:1045A00028B333A96846FFF7C4FD06460EB10220C2
:1045B000DDE74046FFF7B9FF2B490A31339A0A502D
:1045C000A1F12400018B012000FA08F08143264864
:1045D0001A38018304211A3000F8081008F101008C
:1045E00000F0FF08B8F10A0F01DD0320BFE729E062
:1045F0006846FFF787FD401CC7B24046FFF795FFAE
:1046000019490A3100EB010949466846FFF76FFD79
:1046100015481A38018B012000FA08F0014388B2CE
:1046200011491A390883104800F8087008F1010090
:1046300000F0FF08B8F10A0F01DD032097E701E061
:10464000022094E700BF2078292801D0207800B903
:1046500000E094E700BF85F80080002087E70000B5
:10466000766F696400000000BE0000207047000003
:104670000FB4054A054910B503AB7944029800F020
:10468000EEF910BC5DF814FB2C00002001D3FFFFF5
:1046900070B50446856900683026C10600D420261E
:1046A000C00709D106E0D4E9012130469047206ACD
:1046B000401C20626D1EF6D570BD70B5044685693C
:1046C0000068C00709D006E0D4E901212020904706
:1046D000206A401C20626D1EF6D570BD70B505467F
:1046E0000C46012A01D101200BE02868800600D584
:1046F000EA69002000E0401C904202D2215C0029BF
:10470000F9D1A9692618091AA961296A014428461C
:104710002962FFF7BDFF04E0D5E9012114F8010B80
:104720009047B442F8D32846FFF7C7FF70BD00009A
:104730002DE9F0418046002610687529414614A5F0
:1047400011D0AFF30080002802DA404211A508E042
:10475000D8F800108A0701D50FA502E0490704D553
:104760000EA5012601E0AFF30080002408F1240724
:1047700004E000F09DF930313955641C0028F8D16F
:1047800033462A4621464046BDE8F04100F00AB9CA
:10479000000000002D0000002B00000020000000A1
:1047A00070B504460D4621461068AFF300802168BD
:1047B000090502D5104A7A4402E00F4A7A440E32C3
:1047C000002104F1240306E000F00F064FEA101068
:1047D000965D5E54491C0028F6D12068002300072E
:1047E00004D5702D02D009B1113202232046BDE854
:1047F000704000F0D7B80000660300002DE9F05FBC
:104800004FF0000B054689464FF0010AC0F820B072
:104810002846E968884700287ED0252802D0D5E9B7
:104820000121B0E05C4F00267F442846E9688847B4
:104830002028044607DB312C05D2381910F8200C4B
:1048400008B10643F1E7B00701D526F00406C5F824
:104850001CB00027C5F818B02A2C10D1284659F8EA
:10486000041B05EB87029161E9688847012F044624
:1048700028D1E869002830DA26F020062DE0A4F1DE
:10488000300052460A2801461AD2CAB105EB870009
:1048900092468046816108E0D8F8180000EB80005D
:1048A00004EB40003038C8F818002846E96888470B
:1048B00004465046A4F130010A2901D20028EBD168
:1048C000012F0AD02E2C08D12846E96888477F1C82
:1048D0000446022F46F02006BEDBA869002803DA52
:1048E000404246F00106A861F00701D026F010060C
:1048F0006C2C01D0682C18D127462846E9688847D7
:10490000B84204460BD180206C2F00D0C000E9686B
:1049100006432846884700E03AE0044615E0402078
:104920006C2F00D0800006430FE04C2C05D06A2C81
:1049300003D0742C01D07A2C07D158464C2CE6D0E9
:1049400080206A2CE3D00020E1E70CB3A4F1410001
:10495000192802D8203446F400664A4621462846E3
:104960002E604E46FBF73EFC50B1012802D106F105
:1049700004094DE7F61D26F0070000F1080947E796
:10498000D5E9012120469047286A401C28623FE76C
:10499000286ABDE8F09F00001C03000070477047C4
:1049A000704770472DE9F0470D46044692469946F8
:1049B00000F124080168880604D5E06921F010019F
:1049C000216000E001200027A84200DD471BA1690B
:1049D0007A1902EB0900081AA0612068C00602D407
:1049E0002046FFF755FE002608E0D4E901211AF819
:1049F00006009047206A401C761C20624E45F4DB7E
:104A00002068C0060AD52046FFF742FE06E0D4E93A
:104A1000012130209047206A401C2062381EA7F1F7
:104A20000107F4DC07E0D4E9012118F805009047FC
:104A3000206A401C2062281EA5F10105F3DC2046F7
:104A4000FFF73BFE21680220090600D40120BDE8E3
:104A5000F087000001694A1C02610878704710B5B0
:104A60000C46194690B0CDE9024200220692044A53
:104A70007A44CDE9042001A8FFF7C0FE10B010BDB4
:104A8000E1FFFFFF10B5436913B1AFF3008001E010
:104A9000FFF724FE012010BD126800F124010A7006
:104AA00000224A700122EDE711684FF0FF32E9E77A
:104AB0004FF00A01B0FBF1F202FB11011046704702
:104AC000754600F029F8AE4605006946534620F0C9
:104AD0000700854618B020B5FDF7D8F8BDE820409E
:104AE0004FF000064FF000074FF000084FF0000BAA
:104AF00021F00701AC46ACE8C009ACE8C009ACE85D
:104B0000C009ACE8C0098D4670470446AFF3008089
:104B10002046FBF787FB0000004870473408002060
:104B200030313233343536373839414243444546E3
:104B300040305800303132333435363738396162DD
:104B400063646566403078000400000800000000DF
:104B50000000000200010000103F0064656300696E
:104B6000640068656C70006C697374006865780037
:104B7000766F696420524441353832305F42616E4D
:104B8000645F5365742875382062616E642900760D
:104B90006F696420524441353832305F5273736913
:104BA0005F53657428753820727373692900766FB6
:104BB00069642077726974655F6164647228753313
:104BC0003220616464722C7533322076616C290066
:104BD000766F696420524441353832305F566F6CCD
:104BE0005F53657428753820766F6C2900766F697D
:104BF0006420524441353832305F54785047415F29
:104C0000536574287538206761696E2900766F696D
:104C10006420524441353832305F467265715F53CB
:104C200065742875313620667265712900753332D6
:104C300020726561645F616464722875333220613B
:104C40006464722900766F69642064656C61795FC1
:104C50006D7328753136206E6D732900766F696427
:104C60002064656C61795F757328753332206E75C9
:104C700073290000944C00080000002090010000FF
:104C80006C010008144D000890010020080D000080
:104C9000C8010008D184A24A0400091401020304D7
:104CA00006070809291C69201702040608594B1B2E
:104CB0000862041A67041A5F041A6C041A5B04136E
:104CC0006B4014082D4C1B0871081AAE10131B19E9
:104CD0001B08451013D7181B085C0813D1151B08B7
:104CE0008F18132F161B0870081A6D081A0D181A42
:104CF0008D181AD0101A0F101AED08225C14208992
:104D00003C1B08AD0413573D1408F13F299902D408
:044D1000010000009E
:0400000508000131BD
:00000001FF
