:020000040800F2
:10000000980E00205524000801140008031400086D
:10001000071400080B1400080F140008000000006B
:1000200000000000000000000000000013140008A1
:100030001514000800000000171400081914000827
:100040006F2400086F2400086F2400086F24000844
:100050006F2400086F2400086F2400086F24000834
:100060006F2400086F2400086F2400086F24000824
:100070006F2400086F2400086F2400086F24000814
:100080006F2400086F2400086F2400086F24000804
:100090006F2400086F2400086F2400086F240008F4
:1000A0006F2400086F2400086F2400086F240008E4
:1000B000ED430008471D0008C71D00086F24000815
:1000C0006F2400086F2400086F2400086F240008C4
:1000D0006F24000817220008792300086F24000805
:1000E0006F2400086F2400086F2400086F240008A4
:1000F0006F2400086F2400086F2400086F24000894
:100100006F2400086F2400086F2400086F24000883
:100110006F2400086F2400086F2400086F24000873
:100120006F2400086F2400086F2400086F24000863
:1001300000F002F800F06DF80AA090E8000C82448C
:100140008344AAF10107DA4501D100F062F8AFF269
:10015000090EBAE80F0013F0010F18BFFB1A43F0A5
:1001600001031847B4570000D45700000A444FF069
:10017000000C10F8013B13F0070408BF10F8014B06
:100180001D1108BF10F8015B641E05D010F8016B4B
:10019000641E01F8016BF9D113F0080F1EBF10F8AF
:1001A000014BAD1C0C1B09D16D1E58BF01F801CBD2
:1001B000FAD505E014F8016B01F8016B6D1EF9D555
:1001C0009142D6D37047000000230024002500266A
:1001D000103A28BF78C1FBD8520728BF30C148BFAA
:1001E0000B607047642904F09586752904F09286A7
:1001F000782904F0C786632905F04080732905F04B
:100200004580002070471FB5AFF300801FBD10B5BB
:1002100010BD05F047F81146FFF7F5FF00F0C7F9EC
:1002200005F065F8FFF7F3FF01F098FF10B5002423
:10023000FF48407872280BD1FD488078732807D199
:10024000FB48C078652803D1F94800795F281FD0A2
:10025000F748407873280BD1F5488078632807D198
:10026000F348C078612803D1F14800795F280FD0A6
:10027000EF4840786A287ED1ED48807864287ED1A6
:10028000EB48C07871287AD1E94800795F2876D1A7
:100290000020E84908702420E749E64A127888548B
:1002A000E4480078401CE34908707220E249E14AC2
:1002B00012788854DF480078401CDE4908707320AB
:1002C000DD49DC4A12788854DA480078401CD94964
:1002D00008707421D848D74A12788154D5480078DC
:1002E000401CD44908705F21D348D24A1278815407
:1002F000D0480078401CCF4908705F21CE48CD4AD5
:1003000012788154CB480078401CCA4908700020FC
:10031000C949C84A12788854C6480078401CC54963
:1003200008700020C449C34A12788854C148007834
:10033000401CC049087008460178BF4801F0D9F94F
:10034000BD49BC4A12788854BA480078401CB94963
:10035000087000240DE0B848015DB84802F0B3FD14
:1003600000BF4021B54802F01CFE0128F9D1601CF5
:10037000C4B2B04800E002E000788442EBDB10BD7C
:1003800010B504460120AE4908700020AD49086050
:1003900041F61F4142F20F7001F0E8FC012C03D13D
:1003A0000120A94908602EE0022C04D10120A649B1
:1003B000091F086027E0032C04D10120A14924393A
:1003C000086020E0042C04D101209E4928390860EF
:1003D00019E0052C03D101209C49086013E0062C8C
:1003E00004D101209949091F08600CE0072C04D1B1
:1003F000012096490839086005E0082C03D1012046
:1004000092490C3908600121914803F01EFA10BD91
:100410000121904A117001281CD10021894A143A07
:10042000116001218C4AC2F8A011864A1C3A116061
:100430000021121F11600121834A3832116000210E
:10044000121F11600121121F11600021834AC2F89E
:10045000B011A8E002281DD100217A4A143A116097
:1004600001217D4AC2F8A0110021764A1C3A116090
:100470000121121F11600021734A383211600121DD
:10048000121F11600021121F11600121734AC2F86E
:10049000B01188E0032818D100216A4A143A11608B
:1004A00001216D4AC2F8A0110021664A1C3A116070
:1004B000121F1160644A38321160121F1160121F3E
:1004C0001160664AC2F8B0116DE0042816D101210E
:1004D0005C4A143A1160604AC2F8A011594A1C3AA9
:1004E0001160121F1160584A38321160121F1160DA
:1004F000121F1160594AC2F8B01154E005281CD1EE
:100500000021504A143A1160534AC2F8A011012147
:100510004C4A1C3A11600021121F116001214A4A05
:10052000383211600021121F11600121121F116069
:1005300000214A4AC2F8B01135E006281BD100213B
:10054000404A143A1160444AC2F8A0113D4A1C3A8C
:1005500011600121121F116000213B4A38321160E5
:100560000121121F11600021121F116001213B4A5D
:10057000C2F8B01117E0072815D10021314A143A0A
:100580001160354AC2F8A0112E4A1C3A1160121FA0
:1005900011602D4A38321160121F1160121F116054
:1005A0002E4AC2F8B01100212A4A117070472DE975
:1005B000F04700240027A04601F032F801F068FD62
:1005C00001F0C6FD4FF4E13001F0D6FD4FF4E1300B
:1005D00001F082FE01F006F841F61F4142F20F7071
:1005E00001F0C4FB41F61F4142F20F7001F07EFBA7
:1005F00001F0EBFC00F0F6BE1948008810F4004F43
:100600007ED01848007800287AD115480088C0F3B9
:100610000D0615480078242873D1002E71DD701E58
:1006200081B2114801F065F80746242F20D01DE063
:10063000F401002006000020900100200038014055
:1006400007000020B8012242848121429C012142FE
:1006500000080040080000200000224200802142E3
:100660002800002004000020140500200D2F01D1D7
:10067000781CC7B2701EFB49085CB8427ED10020CE
:10068000F9490870F7484078722878D1F5488078A1
:100690006528FAD1F348C0787928F6D1F148007975
:1006A0005F28F2D10120F14908702420F049EE4A78
:1006B00012788854EC480078401CEB49087072208E
:1006C000EB49E94A12788854E7480078401CE6492B
:1006D00008706520E649E44A12788854E2480078B8
:1006E000401CE14908707920E149DF4A12788854BA
:1006F000DD480078401CDC4908705F20DC4901E0DF
:10070000E0E2D2E2D84A12788854D7480078401CF8
:10071000D54908705F21D648D34A12788154D2480F
:100720000078401CD0490870CE484079D049CE4A64
:1007300012788854CC480078401CCB49087001F0EE
:1007400061FC8146C9F30720C949C74A1278885419
:10075000C5480078401CC4490870C549C24A12788F
:1007600001F80290C0480078401CBF490870084654
:100770000178BF4800F0BDFFBD4901E088E22BE0F1
:10078000B94A12788854B8480078401CB6490870B5
:100790000220B649087000240DE0B548015DB54857
:1007A00002F091FB00BF4021B24802F0FAFB0128A1
:1007B000F9D1601C84B2AC4800788442EDDB0020A3
:1007C000AD490880012240F22551AA4802F018FBE9
:1007D0000020A64908707BE2A248407870287DD1AD
:1007E000A04880787028FAD19E48C07870287FD1C0
:1007F0009C4800795F287BD10A209C4908702421FD
:100800009B48994A1278815497480078401C964931
:10081000087070219648944A127881549248007862
:10082000401C91490870702091498F4A1278885471
:100830008D480078401C8C49087070208C498A4A89
:100840001278885488480078401C874908705F20D7
:100850008749854A1278885483480078401C824929
:1008600008708048407982497F4A127888547E48CF
:100870000078401C7C4908707A4880797C497A4A23
:100880001278885478480078401C77490870754879
:10089000C0797749744A1278885473480078401CAC
:1008A000714908700B207549087000240DE07048EC
:1008B000015D734802F007FB00BF4021704802F061
:1008C00070FB0128F9D1601C84B26748007884422B
:1008D000EDDB002068490880012200E008E040F2DA
:1008E0002551644802F08CFA002060490870EFE15D
:1008F0005C48407872287ED15A4880787328FAD1B3
:100900005848C0786528F6D1564800795F28F2D15A
:100910005C4800780028EED1032054490870242058
:100920005349514A127888544F480078401C4E4928
:10093000087072204E494C4A127888544A48007810
:10094000401C4949087073214948474A127881542C
:1009500045480078401C4449087065214448424A93
:100960001278815440480078401C3F4908705F204D
:100970003F493D4A127888543B480078401C3A4928
:1009800008705F213A48384A127881543648007816
:10099000401C35490870334841793548324A12784D
:1009A000815431480078401C2F4908702D488079C7
:1009B0002F492D4A127888542B480078401C2A4928
:1009C0000870084601782A4800F093FE2849264A14
:1009D0001278885424480078401C23490870214824
:1009E0008079303800F0FF08B8F1010F04D1012000
:1009F000FFF7C6FC30E066E0B8F1020F03D1022039
:100A0000FFF7BEFC28E0B8F1030F03D10320FFF786
:100A1000B7FC21E0B8F1040F03D10420FFF7B0FCCC
:100A20001AE0B8F1050F03D10520FFF7A9FC13E088
:100A3000B8F1060F03D10620FFF7A2FC0CE0B8F1D5
:100A4000070F03D10720FFF79BFC05E0B8F1080F63
:100A500002D10820FFF794FC042004490870002408
:100A600020E0000014050020060000200400002003
:100A700090010020004400402800002005000020D4
:100A80000038014007000020FF48015DFF4802F0E8
:100A90001AFA00BF4021FD4802F083FA0128F9D17B
:100AA000601C84B2FA4800788442EDDB0020F949EA
:100AB0000880012240F22551F44802F0A1F90020FB
:100AC000F549087004E1F548407873287ED1F34871
:100AD00080787728FAD1F148C0786828F6D1EF48B5
:100AE00000795F28F2D1EE4800780028EED1052089
:100AF000E94908702420E449E54A12788854E4481A
:100B00000078401CE24908707321DF48E04A1278FF
:100B10008154DF480078401CDD4908707720DA49AD
:100B2000DB4A12788854DA480078401CD8490870AB
:100B30006820D549D64A12788854D5480078401C98
:100B4000D34908705F20D049D14A12788854D048E0
:100B50000078401CCE4908705F21CB48CC4A1278FF
:100B60008154CB480078401CC9490870CB48407973
:100B7000C549C74A12788854C5480078401CC44902
:100B80000870C6488079C049C14A12788854C04864
:100B90000078401CBE49087008460178BA4800F049
:100BA000A8FDB949BA4A12788854B9480078401C5F
:100BB000B7490870B9488079303800F0FF08B8F1BB
:100BC000010F04D10120FFF723FC30E053E0B8F11E
:100BD000020F03D10220FFF71BFC28E0B8F1030F3E
:100BE00003D10320FFF714FC21E0B8F1040F03D177
:100BF0000420FFF70DFC1AE0B8F1050F03D1052022
:100C0000FFF706FC13E0B8F1060F03D10620FFF74B
:100C1000FFFB0CE0B8F1070F03D10720FFF7F8FB4B
:100C200005E0B8F1080F02D10820FFF7F1FB06201C
:100C30009949087000240DE09348015D934802F043
:100C400042F900BF4021914802F0ABF90128F9D1E7
:100C5000601C84B28E4800788442EDDB00208D4910
:100C60000880012240F22551884802F0C9F800208E
:100C7000894908702CE0002086490880012240F252
:100C80002551824802F0BCF80020834908701FE01B
:100C9000002080490880012240F225517B4802F063
:100CA000AFF800207C49087012E0002079490880E4
:100CB000012240F22551754802F0A2F80020764941
:100CC000087005E0012240F22551704802F098F8C2
:100CD0007448008810F4004F7ED0734800780028D4
:100CE0007AD170480088C0F30D0570480078242838
:100CF00073D1002D71DD681E81B26C4800F0F9FCE3
:100D00000746242F01D00D2F01D1781CC7B2681ED1
:100D10006649085CB84272D100205D49087063489A
:100D2000407872286CD1614880786528FAD15F4894
:100D3000C0786428F6D15D4800795F28F2D101209F
:100D40005949087024205049514A12788854504813
:100D50000078401C4E49087072204B494C4A12786A
:100D600088544B480078401C494908706520464922
:100D7000474A1278885446480078401C4449087015
:100D800064204149424A1278885441480078401C06
:100D90003F4908705F203C493D4A127888543C48DE
:100DA0000078401C3A4908705F203749384A127869
:100DB000885437480078401C354908703B484179D1
:100DC0003148334A1278815431480078401C304908
:100DD00008700846017801E0FBE2EDE22A4800F0E5
:100DE00088FC29492A4A1278885429480078401CEE
:100DF0002749087002202C49087000240FE0CCE23B
:100E00001EE02148015D2A4802F05DF800BF402144
:100E1000274802F0C6F80128F9D1601C84B21C48AA
:100E200000788442EDDB00201E490880012240F258
:100E300025511F4801F0E4FF00201B490870D1E252
:100E40001A48407872287ED1184880787328FAD1E1
:100E50001648C0786528F6D1144800795F28F2D189
:100E6000144800780028EED103200F49087024218F
:100E70000548074A1278815405480078401C044907
:100E800008707220004917E09001002000440040E3
:100E90000600002028000020040000201405002087
:100EA000080000202400002005000020F40100209C
:100EB0000038014007000020FF4A12788854FE489D
:100EC0000078401CFC4908707321FC48FA4A1278EB
:100ED0008154F9480078401CF74908706520F749AB
:100EE000F54A12788854F4480078401CF24908709A
:100EF0005F20F249F04A12788854EF480078401C8D
:100F0000ED4908705F20ED49EB4A12788854EA48B1
:100F10000078401CE8490870E9484079E749E64A0A
:100F200012788854E4480078401CE3490870E4488B
:100F30008079E249E04A12788854DF480078401C02
:100F4000DD49087000E038E0DD4880793038052858
:100F500001D1FFF715FAD8480178D84800F0C9FB4D
:100F6000D649D54A12788854D3480078401CD249D3
:100F700008700420D349087000240DE0CF48015DBB
:100F8000D14801F0A0FF00BF4021CF4802F009F88E
:100F90000128F9D1601C84B2C74800788442EDDB97
:100FA0000020CA490880012240F22551C64801F0BC
:100FB00027FF0020C349087014E2C1484078702818
:100FC0007DD1BF4880787028FAD1BD48C07870289C
:100FD0007FD1BB4800795F287BD10A20B9490870CE
:100FE0002421B648B44A12788154B3480078401C92
:100FF000B14908707021B148AF4A12788154AE48A7
:101000000078401CAC4908707021AC48AA4A12789C
:101010008154A9480078401CA74908707021A7484E
:10102000A54A12788154A4480078401CA24908704F
:101030005F20A249A04A127888549F480078401C3B
:101040009D4908709E4840799C499B4A1278885473
:1010500099480078401C98490870994880799749C8
:10106000954A1278885494480078401C9249087038
:101070009348C1799148904A127881548E480078FB
:10108000401C8D4908700B208E49087000240DE02B
:101090008A48015D8E4801F016FF00BF40218C4850
:1010A00001F07FFF0128F9D1601C84B282480078EA
:1010B0008442EDDB002085490880012200E008E041
:1010C00040F22551804801F09BFE00207D490870C8
:1010D00088E17B4840786A286FD179488078642815
:1010E000FAD17748C0787128F6D1754800795F2821
:1010F000F2D1072073490870242170486E4A127893
:1011000081546D480078401C6B4908706A206B4917
:10111000694A1278885468480078401C664908700B
:1011200064216648644A1278815463480078401C00
:1011300061490870712061495F4A127888545E489D
:101140000078401C5C4908705F215C485A4A12785C
:10115000815459480078401C574908705F2157480E
:10116000554A1278815454480078401C52490870FE
:10117000534840795149504A127888544E48007873
:10118000401C4D4908704E4880794C494A4A1278B3
:10119000885449480078401C47490870484880797D
:1011A000303801280AD14B490860052000F0A7FF1C
:1011B00001204949C1F8900110E041E040488079A0
:1011C000303802280AD100204249091F0860052052
:1011D00000F095FF00204049C1F89401364801789D
:1011E000364800F086FA3549334A12788854324836
:1011F0000078401C304908700820324908700024EB
:101200000DE02E48015D304801F05DFE00BF402139
:101210002D4801F0C6FE0128F9D1601C84B2264891
:1012200000788442EDDB002028490880012240F24A
:101230002551254801F0E4FD002022490870D1E045
:101240001F48407873287BD11D4880786328FAD1E5
:101250001B48C0786128F6D1194800795F28F2D17F
:1012600005201849087024211448134A1278815423
:1012700011480078401C1049087073200F490E4A2D
:10128000127888540C480078401C0B490870632180
:101290000A48094A1278815407480078401C0649D8
:1012A000087061210548044A127881540248007888
:1012B000401C0149087011E0060000209001002048
:1012C000F401002005000020003801402400002027
:1012D0000044004094012142000021425F20424925
:1012E000424A1278885441480078401C3F490870AF
:1012F0005F203D493D4A127888543C480078401CA4
:101300003A4908703A4841793748384A1278815446
:1013100036480078401C3549087008460178324844
:1013200000F0E7F93049314A127888542F480078A4
:10133000401C2E49087006202E49087000240EE03B
:101340001EE02948015D2C4801F0BDFD00BF402191
:10135000294801F026FE0128F9D1601C84B22348F7
:1013600000788442EDDB002024490880012240F20D
:101370002551214801F044FD00201E49087031E04C
:1013800000201E490880012240F225511A4801F030
:1013900037FD00201749087024E000201749088015
:1013A000012240F22551144801F02AFDFEF73EFFCC
:1013B00000201049087015E0002010490880012223
:1013C00040F225510C4801F01BFD0020094908702E
:1013D00008E00848007828B9012240F22551064863
:1013E00001F00EFDFFF708B9900100200600002073
:1013F000F4010020050000200038014024000020F6
:10140000704700BFFEE700BFFEE700BFFEE700BF7A
:10141000FEE77047704770477047000000200021CA
:10142000674A126842F48032654B1A6000BF644A12
:10143000126802F40031401C11B9B0F5A06FF6D16A
:101440005F4A126812F4003F01D0012100E0002140
:10145000012942D15B4A126842F01002594B1A60CE
:101460001A46126822F003021A601A46126842F005
:1014700002021A60524A5268514B5A601A46526828
:101480005A601A46526842F480625A601A4652689C
:1014900022F47C125A601A46526842F4E8125A60EA
:1014A0001A46126842F080721A6000BF444A1268FD
:1014B00012F0007FFAD0424A526822F00302404BF9
:1014C0005A601A46526842F002025A6000BF3C4A13
:1014D000526802F00C02082AF9D1704710B5FFF7E4
:1014E0009DFF10BD10B53648006840F0010034493A
:1014F0000860084640683449084031494860084659
:101500000068324908402E4908600846006820F407
:10151000802008600846406820F4FE0048604FF4D0
:101520001F008860FFF7DAFF4FF00060284908606D
:1015300010BD10B5002000210022214B5B6803F094
:101540000C0020B1042806D0082828D107E0214B40
:10155000214C236027E01F4B1F4C236023E0184BD6
:101560005B6803F47011164B5B6803F4803202234E
:1015700003EB914122B9194B4B43174C23600DE00B
:101580000F4B5B6813F4003F04D0144B4B43124CD9
:10159000236003E00F4B4B430F4C236003E00D4BE4
:1015A0000D4C236000BF00BF054B5B68C3F3031302
:1015B0000B4CE05C084B1B68C340074C236010BD1C
:1015C00000100240002002400000FFF8FFFFF6FE7E
:1015D00008ED00E000127A000C00002000093D0038
:1015E0001000002008B50121102001F0CDFA4FF4C1
:1015F0004040ADF8000010208DF8030003208DF866
:1016000002006946414801F015F84FF480413F4817
:1016100001F0B8F84FF400413C4801F0B3F808BDC0
:1016200008B501211C2001F0AFFA4FF20300ADF81C
:10163000000010208DF8030003208DF80200694699
:10164000334800F0F7FF0121314801F09DF80221F5
:101650002F4801F099F84FF480512D4801F092F88D
:101660004FF400512A4801F08DF84FF4804128488A
:1016700001F088F84FF40041254801F083F84FF459
:101680007C70ADF800006946204800F0D3FF1021BF
:101690001E4801F079F820211C4801F075F840211E
:1016A0001A4801F06FF88021184801F06BF84FF4E8
:1016B0008071164801F066F84FF40071134801F08C
:1016C00061F8F020ADF800006946124800F0B2FF62
:1016D0001021104801F058F820210E4801F054F86C
:1016E00040210C4801F050F880210A4801F04CF8E4
:1016F00008BD10B5024600201078012303E0D45C39
:1017000060405C1CA3B28B42F9DB10BD00100140AD
:10171000000C01400008014008B50121082001F03B
:1017200033FA4FF44060ADF8000010208DF803004C
:1017300003208DF8020069469E4800F07BFF4FF4BD
:1017400040619C4801F01EF808BD10B59948001D85
:10175000006820F470409849C1F8040C0846D0F89D
:10176000040C40F440509349091D0860012093493E
:1017700008609349C1F8A801042000F09EFC0020F5
:101780008F49C1F8AC01042000F097FC00208C497F
:10179000C1F8A80110BD10B58648001D006820F4EE
:1017A00070408549C1F8040C0846D0F8040C40F498
:1017B00040508049091D086000208049091F0860C9
:1017C0007F49C1F8AC01042000F077FC01207B497F
:1017D000091F08607A49C1F8AC01042000F06DFCD3
:1017E00010BD10B500247348001D006820F470403F
:1017F0007149C1F8040C0846D0F8040C40F40040CC
:101800006C49091D086001206C49086000F055FC16
:1018100001206B49C1F8A80100F04FFC07E0601CF3
:10182000C4B2FA2C03DDFFF7B6FF012010BD6348F8
:10183000803800680028F2D16049091F0860F5E788
:1018400010B500205D49091F08605B48D0F8040C02
:1018500020F470405849C1F8040C0846D0F8040C34
:1018600040F440505349091D086000205449C1F814
:10187000AC01022000F021FC01205149C1F8A8016F
:10188000022000F01AFC00204D49C1F8A80110BD4B
:1018900010B500204949091F08604748D0F8040CDA
:1018A00020F470404449C1F8040C0846D0F8040CF8
:1018B00040F440503F49091D086001204049C1F8EB
:1018C000AC01022000F0F9FB01203D49C1F8A8015C
:1018D000022000F0F2FB00203949C1F8A80110BD38
:1018E00070B505463348001D006820F47040324949
:1018F000C1F8040C0846D0F8040C40F440502D49BF
:10190000091D086000202D49091F0860002417E008
:10191000E8092A4908606806050E022000F0CDFBA0
:1019200001202749C1F8A801022000F0C6FB0020D1
:101930002249091F0860022000F0BFFB601CC4B2EE
:10194000082CE5DB70BD70B5044600251948001D64
:10195000006820F470401849C1F8040C0846D0F81B
:10196000040C40F40040C1F8040C002617E00020ED
:101970001249091F0860022000F09FFB0120104956
:10198000C1F8A8016806050E0C488038006808B147
:10199000681CC5B2012000F090FB701CC6B2082E76
:1019A000E5DB14B9FFF774FF01E0FFF749FF2846B4
:1019B00070BD0000000C014000000140AC812142DC
:1019C0000080214270B504460D46FFF7BEFE22207E
:1019D000FFF786FFFFF705FF2046FFF781FFFFF7C0
:1019E00000FF2812FFF77CFFFFF7FBFEE8B2FFF7CE
:1019F00077FFFFF7F6FEFFF7CEFE70BD70B5044629
:101A0000FFF7A3FE2220FFF76BFFFFF7EAFE204659
:101A1000FFF766FFFFF7E5FEFFF797FE2320FFF7CE
:101A20005FFFFFF7DEFE0120FFF78DFF05462D0269
:101A30000020FFF788FF0543FFF7ADFE284670BD85
:101A400010B5FFF769FE0020FFF7D8FF0446A4F5A4
:101A5000B040053837D102210846FFF7B3FF3220E6
:101A600000F04DFB4CF201010220FFF7ABFF4FF4F9
:101A7000167000F044FB48F64F010520FFF7A2FF67
:101A80004FF4F0410720FFF79DFF08211320FFF7D7
:101A900099FF4FF4A1511520FFF794FF4FF44041F7
:101AA0001620FFF78FFF43F226111C20FFF78AFF55
:101AB00049F624412220FFF785FF4FF2606147205D
:101AC000FFF780FF01E0012010BD0020FCE710B50A
:101AD0004020FFF793FF04464FF6F0700440214684
:101AE0004020FFF76FFF10BD10B54020FFF786FFC5
:101AF00004464FF6F070044044F0010421464020B3
:101B0000FFF760FF10BD10B50B20FFF777FF04460D
:101B1000601210BD70B505460520FFF76FFF044643
:101B20004FF6F070044005F00F00044321460520F5
:101B3000FFF748FF70BD70B504460220FFF75EFF57
:101B4000054614B145F4804501E025F48045294659
:101B50000220FFF737FF70BD70B505460520FFF77F
:101B60004DFF044648F2FF00044044EA05242146A4
:101B70000520FFF727FF70BD70B505464220FFF72F
:101B80003DFF04464FF6C07004402C4321464220DE
:101B9000FFF718FF70BD70B505464220FFF72EFF16
:101BA00004464FF6FF00044044EA05242146422043
:101BB000FFF708FF70BD70B505460320FFF71EFF55
:101BC00004464FF6F370044044EA8504214603209E
:101BD000FFF7F8FE70BD70B505460320FFF70EFF56
:101BE00004464FF6FC7004402C4321460320FFF7C7
:101BF000E9FE70BD2DE9F0470446002600270320CA
:101C0000FFF7FCFE054605F01F05C5F3810705F04B
:101C100003060EB90A2604E0012E01D1142600E0C5
:101C2000052617B942F2FC180FE0012F01D0022F50
:101C300002D141F6B05808E05320FFF7DFFE80469E
:101C400008EB880040044FEA1048444501DABDE83B
:101C5000F087A4EB080090FBF6F01FFA80F9C9F3B7
:101C6000090945EA891545F0100529460320FFF7C3
:101C7000A9FE142000F043FA00BF0B20FFF7BEFEC0
:101C800010F0800FF9D0E2E72DE9F0410025A846D9
:101C90000320FFF7B3FE0446A711C4F3810804F044
:101CA00003050DB90A2504E0012D01D1142500E03A
:101CB0000525B8F1000F02D142F2FC1610E0B8F190
:101CC000010F02D0B8F1020F02D141F6B05607E081
:101CD0005320FFF793FE064606EB86004004060CF1
:101CE00007FB056084B22046BDE8F0817FB504465D
:101CF0000D460121022000F054FFADF80840ADF878
:101D000004500020ADF80A00ADF8060001A94248D1
:101D100001F074FA012211463F4801F0BBFD1D207D
:101D20008DF8000000208DF8010003208DF80200DE
:101D300001208DF80300684600F0B1FB0121364810
:101D400001F083FD7FBD10B50121334802F01FF87B
:101D500058B10121304802F02BF83048006808B92A
:101D6000012000E000202D49086010BD7FB5044629
:101D70000D460121042000F014FFADF80840ADF835
:101D800004500020ADF80A00ADF8060001A924486F
:101D900001F034FA01221146214801F07BFD1E209A
:101DA0008DF8000000208DF8010003208DF802005E
:101DB00001208DF80300684600F071FB00211848EF
:101DC00001F043FD7FBD10B50121154801F0DFFF93
:101DD00008B30121124801F0EBFF0020114908600F
:101DE0001149C1F880010D4928390860091F0860B0
:101DF0000E490860091F0860091F0860091F086074
:101E000001200649091F08600020094908700021C7
:101E1000034801F01AFD10BD00040040BC0122423D
:101E20000008004084812142008021429C0121421F
:101E30000700002010B59148006820F00F008F497E
:101E400008600846006840F00300086000208C49E4
:101E5000086040F2EE2000F030F901208949C1F815
:101E6000B4010F2000F029F910BD10B500248348FB
:101E7000006820F00F00814908600846006840F0C3
:101E80000800086004E0601CC4B2012000F015F9ED
:101E90007B488038006808B1C82CF4DBC82C01DB13
:101EA000012010BD002404E0601CC4B2012000F039
:101EB00004F973488038006808B9F02CF4DBF02C82
:101EC00001DB0120EDE70020EBE710B56B4800686F
:101ED00020F00F00694908600846006840F00300E0
:101EE0000860002066490860022000F0E6F8012042
:101EF0006449C1F8B4016148006820F00F005F49EF
:101F000008600846006840F0080008600C2000F0F7
:101F1000D4F85B488038006808B1012400E0002450
:101F2000322000F0CAF8204610BD70B5002601240A
:101F300008E0FFF7CAFF0546E80140EA6600C6B2BE
:101F4000601CC4B2082CF4DD304670BD70B5044688
:101F50004A48006820F00F004849086008460068B9
:101F600040F003000860012620E004F00105641041
:101F70006DB1002042490860022000F09EF8012067
:101F80004049C1F8B4013C2000F097F80CE0002073
:101F90003B4908603C2000F090F801203949C1F825
:101FA000B401022000F089F8701CC6B2082EDCDDF6
:101FB00070BD10B5FFF73EFFFFF757FFCC20FFF7CE
:101FC000C5FF4420FFF7C2FF10BD08B50121102056
:101FD00000F0DAFD4FF40050ADF8000010208DF84D
:101FE000030003208DF802006946244800F022FB1C
:101FF0004FF40051214800F0C5FBFFF71BFFFFF72E
:1020000034FF08BD2DE9FF41FFF7D3FFFFF712FFB3
:10201000FFF72BFFCC20FFF799FFBE20FFF796FFBD
:10202000FFF783FF0546FFF780FF0746072F05DD13
:10203000F843C7B2E843C5B2002400E001243E469D
:10204000300206B2701906B2304603F057FB8046E4
:1020500003F026FBCDE902010BA00CC8029803F0A7
:10206000C5F9CDE9000103F05DF906B21CB13046B7
:1020700004B0BDE8F081704200B2F9E70010014001
:10208000B401224200002242000000000000E43FB0
:1020900010B56FF0040000F04FFA2A4800682A4992
:1020A000B0FBF1F029490870084600784FF47A71C6
:1020B00048432649891C088010BD244A12784243AF
:1020C0004FF0E0235A6100229A611A46126942F0E9
:1020D00001021A6100BF4FF0E022116911F0010FF7
:1020E00002D011F4803FF6D04FF0E022126922F0C6
:1020F00001024FF0E0231A6100229A617047134AEF
:10210000921C128842434FF0E0235A6100229A61E8
:102110001A46126942F001021A6100BF4FF0E02234
:10212000116911F0010F02D011F4803FF6D04FF089
:10213000E022126922F001024FF0E0231A6100222E
:102140009A6170470C00002000127A0020000020E5
:1021500010B54FF4A06000F09DF910BD014600BF1E
:10216000704700BFB04A128812F0400FFAD0C2B2D6
:10217000AD4B1B1D1A80704710B586B00446012177
:1021800044F2040000F000FDA74800F05FFD4FF4AA
:102190000070ADF8140003208DF8160018208DF89B
:1021A000170005A9A14800F045FA4FF48060ADF88A
:1021B000140004208DF8170005A99C4800F03AFA95
:1021C00025208DF8000003208DF801008DF8020015
:1021D00001208DF80300684600F061F901940020A9
:1021E000ADF80800ADF80A00ADF80C00ADF810002D
:1021F0000C20ADF80E0001A98B4800F06AFD012209
:1022000040F22551884800F0FBFD0121864800F08E
:10221000EBFD06B010BD10B540F22551824800F02C
:10222000D6FE002857D0804800F051FEC4B2242CBE
:1022300005D101207E49087000207E4908807C4835
:102240000078012847D17C480078042804D1002078
:1022500079490870774908807648008810F4004F63
:1022600039D175480078002835D17248008810F4BB
:10227000804F15D00A2C03D000206E4908802AE038
:102280006C48008840F400406A4908800020684992
:102290000870002240F22551634800F0B1FD1AE0B9
:1022A0000D2C06D16348008840F4804061490880C5
:1022B00011E060480088C0F30D0060490C545D488F
:1022C0000088401C5B49088008460088B0F5487FBC
:1022D00001DB0020088010BD10B586B00446012146
:1022E000042000F051FC0121480400F05AFC54483D
:1022F00000F0ACFC0420ADF8140003208DF81600AB
:1023000018208DF8170005A9484800F093F9082017
:10231000ADF8140004208DF8170005A9434800F01B
:1023200089F901940020ADF80800ADF80A00ADF875
:102330000C00ADF810000C20ADF80E0001A94048CB
:1023400000F0C7FC26208DF8000003208DF8010066
:102350008DF8020001208DF80300684600F09FF818
:10236000012240F22551364800F04AFD012134484F
:1023700000F03AFD06B010BD10B540F225513048CE
:1023800000F025FE00284ED02D4800F0A0FDC4B27C
:10239000242C05D101202B49087000202A490880EF
:1023A0002848007801283ED12748008810F4004FC3
:1023B00039D126480078002835D12348008810F408
:1023C000804F15D00A2C03D000201F4908802AE036
:1023D0001D48008840F400401B490880002019492E
:1023E0000870002240F22551154800F009FD1AE05E
:1023F0000D2C06D11448008840F480401249088012
:1024000011E011480088C0F30D0011490C540E482A
:102410000088401C0C49088008460088B0F5487FB9
:1024200001DB0020088010BD003801400008014099
:10243000260000202400002005000020F4010020D8
:10244000004400402A000020280000200400002052
:10245000140500200948804709480047FEE7FEE7C9
:10246000FEE7FEE7FEE7FEE7FEE7FEE7FEE7FEE744
:1024700004480549054A064B70470000E51400086A
:102480003101000898080020980E0020980A0020CA
:10249000980A002032490143324A1160704770B5F2
:1024A000002100230F22C4780CB32E4C246804F4BE
:1024B000E064C4F5E064210AC1F10403CA40447831
:1024C00004FA03F18478144021430901264C06786C
:1024D000A155047804F01F050124AC4005786D1166
:1024E0004FF0E02606EB8505C5F8004109E00478C9
:1024F00004F01F040125A5401C4C0678761144F811
:10250000265070BD1A4A0A400243164B1B1F1A6020
:10251000704741B1134A121D126802434FF0E02385
:10252000C3F8102D07E00F4A121D126882434FF0C6
:10253000E023C3F8102D7047042808D14FF0E021A4
:10254000096941F004014FF0E022116107E04FF00A
:10255000E021096921F004014FF0E0221161704788
:102560000000FA050CED00E000E400E080E100E08E
:1025700080FFFF1F10B50446C748844208D10121DF
:10258000042000F01BFB0021042000F017FB46E0B4
:10259000C248844208D10121082000F00FFB00212D
:1025A000082000F00BFB3AE0BD48844208D101212D
:1025B000102000F003FB0021102000F0FFFA2EE0B5
:1025C000B848844208D10121202000F0F7FA002108
:1025D000202000F0F3FA22E0B348844208D1012120
:1025E000402000F0EBFA0021402000F0E7FA16E06E
:1025F000AE48844208D10121802000F0DFFA00219A
:10260000802000F0DBFA0AE0A948844207D10121CA
:10261000801500F0D3FA0021A01500F0CFFA10BD0C
:1026200010B50121084600F0C9FA0021012000F090
:10263000C5FA10BDF0B500220023002400250026B5
:10264000002791F803C00CF00F0291F803C01CF0B2
:10265000100F03D091F802C04CEA0202B1F800C09A
:102660001CF0FF0F31D0066800242BE04FF0010C66
:102670000CFA04F5B1F800C00CEA0503AB4220D116
:10268000A5004FF00F0C0CFA05F7BE4302FA05FC4B
:102690004CEA060691F803C0BCF1280F06D14FF0B2
:1026A000010C0CFA04FCC0F814C00AE091F803C055
:1026B000BCF1480F05D14FF0010C0CFA04FCC0F836
:1026C00010C0641C082CD1D30660B1F800C0BCF166
:1026D000FF0F34DD466800242EE004F1080C4FF0B3
:1026E000010E0EFA0CF5B1F800C00CEA0503AB427E
:1026F00021D1A5004FF00F0C0CFA05F7BE4302FAEA
:1027000005FC4CEA060691F803C0BCF1280F05D180
:1027100004F1080C0EFA0CFEC0F814E091F803C0A6
:10272000BCF1480F07D104F1080C4FF0010E0EFA6E
:102730000CFEC0F810E0641C082CCED34660F0BD3F
:102740004FF6FF710180022181700421C170704732
:102750000246002093680B4201D0012000E00020D7
:1027600070470146886880B2704702460020D368EF
:102770000B4201D0012000E0002070470146C868EC
:1027800080B2704701617047416170470AB10161D1
:1027900000E041617047C16070474FF480320A43E6
:1027A0008261816182618269826970470022414B46
:1027B0001A684FF680731A4042EA00120A433D4BF2
:1027C0001A6070473C49C8617047F0B50022002389
:1027D0000024002500F00046B6F1004F02D1354E2E
:1027E000F46901E0334E7468C0F3034582B200F42B
:1027F0004016B6F5401F08D124F070642D4E76685F
:1028000026F070662B4F7E6012E000F48016B6F55D
:10281000801F06D1032606FA05F39C4344F070643A
:1028200006E0460D360102FA06F6B44344F0706441
:1028300021B1460D360102FA06F6344300F0004697
:10284000B6F1004F02D11B4EF46101E0194E7460E5
:10285000F0BD30B500228B071C0F0F2303FA04F2E2
:10286000144B08338C1053F8244094438D1043F8D4
:1028700025408C1053F824308C07240F00FA04F400
:1028800023430C4C08348D1044F8253030BD0A49E0
:10289000DC3108607047000000080140000C014076
:1028A000001001400014014000180140001C0140CC
:1028B000002001400000014000002042DB48006889
:1028C00040F00100D949086008464068D8490840EE
:1028D000D649486008460068D6490840D349086090
:1028E0000846006820F4802008600846406820F40C
:1028F000FE0048604FF41F0088607047CB490968AC
:1029000021F48031C94A11601146096821F48021FF
:102910001160B0F5803F03D0B0F5802F0ED106E0F6
:10292000C249096841F48031C04A116007E0BF49DB
:10293000096841F4A021BD4A116000E000BF00BF5A
:10294000704710B501460022002300204A11012AD9
:1029500002D1B64C236806E0022A02D1B34C236AA6
:1029600001E0B24C636A01F01F02012494401C4252
:1029700001D0012000E0002010BD70B5002400252A
:10298000002600BF3120FFF7DCFF0646641CB4F5CB
:10299000A06F01D0002EF5D03120FFF7D2FF08B193
:1029A000012500E00025284670BD00219F4A1168DE
:1029B00021F0F80141EAC001116070479E490860AA
:1029C00070470022994B5A6822F47C1240EA0103B6
:1029D0001A43964B5A607047974908667047002122
:1029E000924A516821F003010143516070478F48BA
:1029F000406800F00C00704700218C4A516821F0BB
:102A0000F0010143516070470021884A516821F468
:102A1000E0610143516070470021844A516821F40C
:102A2000605141EAC0015160704729B17F4A527A32
:102A300002437E4B5A7206E07C4A527AC343DBB2B1
:102A40001A407A4B5A7270477B49D83108607047F8
:102A50000021764A516821F440410143516070479A
:102A60000021724A20321170704A82F82010012829
:102A700002D004280AD104E001216C4A20321170EE
:102A800005E00521694A2032117000E000BF00BF57
:102A900070476A49086070476449096A0143634A9C
:102AA00011627047654944390860704730B50021AC
:102AB0000022002300245D4D6D6805F00C0121B15A
:102AC000042905D0082923D105E05D4D056022E0E9
:102AD0005B4D05601FE0554D6D6805F47012534D58
:102AE0006D6805F48033022505EB92421BB9554D04
:102AF000554305600BE04D4D6D6815F4003F03D064
:102B0000504D5543056002E04D4D5543056002E0D0
:102B10004B4D056000BF00BF444D6D6805F0F001EE
:102B20000909494D6C5C0568E54045603F4D6D689D
:102B300005F4E061090A444D6C5C4568E540856038
:102B40003A4D6D6805F46051C90A3F4D6C5C4568AB
:102B5000E540C560354D6D6805F44041890B3A4D3F
:102B600010356C5CC568B5FBF4F5056130BD29B165
:102B70002E4A526902432D4B5A6104E02B4A526996
:102B800082432A4B5A61704729B1284A926902430D
:102B9000264B9A6104E0254A92698243234B9A614D
:102BA000704729B1214AD2690243204BDA6104E01F
:102BB0001E4AD26982431D4BDA61704729B11B4A14
:102BC000D2680243194BDA6004E0184AD2688243A3
:102BD000164BDA60704729B1144A12690243134B4D
:102BE0001A6104E0114A12698243104B1A6170475E
:102BF00012494039086070470F49C86470470B4953
:102C0000C87170470948406A40F0807007494862BF
:102C1000704701460020054A92680A4201D001200F
:102C200000E00020704701498872704700100240A0
:102C30000000FFF8FFFFF6FE00004242800442421F
:102C400000127A0000093D003000002010B5044653
:102C5000FB48844209D101218803FFF7AFFF00211F
:102C60004FF48040FFF7AAFF32E0F648844209D1D2
:102C700001214804FFF7AFFF00214FF40030FFF7B8
:102C8000AAFF25E0F048844209D101218804FFF71A
:102C9000A2FF00214FF48020FFF79DFF18E0EB48D2
:102CA000844209D10121C804FFF795FF00214FF4A8
:102CB0000020FFF790FF0BE0E548844208D1012196
:102CC0000805FFF788FF00214FF48010FFF783FF0E
:102CD00010BD2DE9F04786B004460D4600260027BA
:102CE00000BFB146B246A88900B100BFA246268AFD
:102CF0004CF6FF700640E88806432682A6894EF609
:102D0000F3100640A88829890843698908430643C7
:102D1000A681A68A4FF6FF400640A8890643A682F0
:102D200001A8FFF7C3FE5446C548824501D1049F60
:102D300000E0039FA08910F4004F08D007EBC70004
:102D400000EB071029684900B0FBF1F807E007EB3A
:102D5000C70000EB071029688900B0FBF1F8642078
:102D6000B8FBF0F006013009642101FB1089A0894D
:102D700010F4004F09D0322101EBC9006421B0FBEF
:102D8000F1F000F00700064308E0322101EB0910E2
:102D90006421B0FBF1F000F00F000643268106B07D
:102DA000BDE8F0874FF41651016000218180C18099
:102DB00001810C21418100218181704710B50022E1
:102DC000028A4FF2FF031A400B884C8823438C88F9
:102DD0002343CC8823431A43028210BD0021018083
:102DE00041808180C180704721B1828942F40052C4
:102DF000828104E082894DF6FF731A408281704718
:102E0000F0B50024002500260023A1F510676A3FD5
:102E100000D100BF0346C1F3421401F01F05012792
:102E200007FA05F6012C01D10C3304E0022C01D184
:102E3000103300E014331AB11F6837431F6002E0FB
:102E40001F68B7431F60F0BD10B51AB1838A0B43EA
:102E5000838204E0838ACC43A4B22340838210BDE2
:102E6000028A4FF6F0731A400282028A0A430282F3
:102E7000704782894FF2FF731A40828182890A4328
:102E80008281704721B1828942F00202828104E08E
:102E900082894FF6FD731A4082817047028A4FF68D
:102EA000DF731A400282028A0A430282704721B10C
:102EB000028A42F48042028204E0028A4BF6FF73E7
:102EC0001A4002827047C1F30802828070470146AF
:102ED0008888C0F308007047818941F00101818131
:102EE0007047028BD2B20283028B42EA0122028334
:102EF0007047028B02F47F420283028B0A430283F3
:102F0000704721B1828A42F02002828204E0828AE4
:102F10004FF6DF731A408282704721B1828A42F0F5
:102F20001002828204E0828A4FF6EF731A40828296
:102F3000704721B1828A42F00802828204E0828ACC
:102F40004FF6F7731A408282704721B1828942F4AA
:102F50000042828103E08289C2F30E0282817047BF
:102F600021B1828A42F40062828204E0828A4FF2B6
:102F7000FF731A4082827047828A4FF6FB731A40B1
:102F80008282828A0A438282704721B1828A42F019
:102F90000202828204E0828A4FF6FD731A40828226
:102FA000704702460020B1F5007F00D100BF1388B2
:102FB0000B4201D0012000E00020704701F40072B4
:102FC000B2F5007F00D100BFCA430280704770B5E0
:102FD00002460023002400250020A1F510666A3E69
:102FE00000D100BFC1F3421501F01F04012606FA0B
:102FF00004F4012D02D19689344006E0022D02D15D
:10300000168A344001E0968A34400B12012606FAF3
:1030100003F31688334014B10BB1012000E0002007
:1030200070BD10B500220023A1F510646A3C00D1E8
:1030300000BF0A1201249440A3B2DC43048010BDF7
:10304000003801400044004000480040004C00406F
:103050000050004010B50446FF48844208D10121C9
:10306000C014FFF7ABFD0021E014FFF7A7FDC4E09B
:10307000B4F1804F08D101210846FFF7ACFD0021D3
:103080000120FFF7A8FDB8E0F448844208D10121EF
:103090000220FFF7A0FD00210220FFF79CFDACE01D
:1030A000EF48844208D101210420FFF794FD00215C
:1030B0000420FFF790FDA0E0EA48844208D10121F6
:1030C0000820FFF788FD00210820FFF784FD94E029
:1030D000E548844208D101211020FFF77CFD002142
:1030E0001020FFF778FD88E0E048844208D10121F4
:1030F0002020FFF770FD00212020FFF76CFD7CE011
:10310000DB48844208D101214014FFF757FD00211C
:103110006014FFF753FD70E0D648844209D10121C5
:10312000C804FFF74BFD00214FF40020FFF746FDD8
:1031300063E0D148844209D101210805FFF73EFD33
:1031400000214FF48010FFF739FD56E0CB48844250
:1031500009D101214805FFF731FD00214FF400108E
:10316000FFF72CFD49E0C648844208D101214020E8
:10317000FFF731FD00214020FFF72DFD3DE0C14864
:10318000844208D101218020FFF725FD0021802005
:10319000FFF721FD31E0BC48844208D101218015B0
:1031A000FFF719FD0021A015FFF715FD25E0B74831
:1031B000844209D101210804FFF700FD00214FF4EA
:1031C0008030FFF7FBFC18E0B148844209D10121AF
:1031D0004804FFF7F3FC00214FF40030FFF7EEFC4A
:1031E0000BE0AC48844208D101218804FFF7E6FCDB
:1031F00000214FF48020FFF7E1FC10BD002202887F
:10320000954B98420ED09A4B98420BD0B0F1804F1C
:1032100008D0924B984205D0914B984202D0914BE6
:10322000984204D14FF68F731A404B881A438E4B45
:10323000984207D08D4B984204D04FF6FF431A4076
:10324000CB881A4302808B8883850B880385824B49
:1032500098420BD0864B984208D08C4B984205D0B0
:103260008B4B984202D08B4B984201D10B7A03864C
:1032700001238382704770B5002200230024058C4F
:103280004FF6FE7635400584038C8488028B4FF61A
:103290008F752A40B51E2A400D882A43751E2B4083
:1032A0000D892B434D882B436B4DA8420BD0704D9D
:1032B000A84208D0754DA84205D0754DA84202D04D
:1032C000744DA84213D14FF6F7752B404D892B430F
:1032D0004FF6FB752B408D882B434FF6FF652C4036
:1032E0004FF6FF552C408D892C43CD892C4384808B
:1032F0000283CD888586038470BD70B500220023CB
:103300000024058C4FF6EF7635400584038C8488C5
:10331000028B48F6FF752A404FF6FF452A400D887C
:103320002D0642EA15424FF6DF752B400D892D051B
:1033300043EA15434D882D0543EA1543464DA842FF
:1033400002D04B4DA8421BD14FF67F752B404D89C3
:103350002D0543EA15434FF6BF752B408D882D058B
:1033600043EA15434FF6FF352C404FF2FF752C40D2
:103370008D89AD0444EA1544CD89AD0444EA154471
:1033800084800283CD880587038470BD70B50022D8
:1033900000230024058C4FF6FF6635400584038C1E
:1033A0008488828B4FF68F752A404FF6FC752A4031
:1033B0000D882A434FF6FF552B400D892D0643EA11
:1033C00015434D882D0643EA1543234DA84202D0EC
:1033D000274DA8421BD14FF2FF752B404D892D067A
:1033E00043EA15434FF6FF352B408D882D0643EAFF
:1033F00015434EF6FF752C404DF6FF752C408D8918
:103400002D0544EA1544CD892D0544EA15448480F0
:103410008283CD888587038470BD70B50022002328
:103420000024058C4EF6FF7635400584038C848895
:10343000828B48F6FF752A404FF6FF452A400D88DB
:103440002D0642EA15424DF6FF752B400D892D07DA
:1034500043EA15434D881FE0002C01400004004062
:1034600000080040000C0040001000400014004024
:1034700000340140004C0140005001400054014024
:1034800000180040001C00400020004000400140A7
:1034900000440140004801402D0743EA1543F84D20
:1034A000A84202D0F74DA84206D14BF6FF752C403A
:1034B0008D89AD0544EA154484808283CD88A0F8C7
:1034C0004050038470BD828B4FF2FF331A408283D9
:1034D000828B0B0642EA134282837047F0B50024C8
:1034E00000250026078C4EF6FF7C07EA0C070784B0
:1034F000848B058C0F073E0C40F6FF473C401706B7
:1035000044EA17441F0744EA1744DD4FB8420ED07F
:10351000DC4FB8420BD0B0F1804F08D0DA4FB84240
:1035200005D0DA4FB84202D0D94FB84206D14DF695
:10353000FF773D4046F480573D4305E047F6FF578F
:103540003D4041F480573D4384830584F0BD828B28
:103550004FF6F3731A408283828B0A43828370474B
:10356000F0B5002400250026078C4FF6FF6C07EA13
:103570000C070784848B058C0F063E0C4FF60C77E6
:103580003C401F0542EA17473C43BD4FB8420ED0AE
:10359000BC4FB8420BD0B0F1804F08D0BA4FB84200
:1035A00005D0BA4FB84202D0B94FB84206D14FF653
:1035B000FF573D4046F480773D4305E04FF2FF570B
:1035C0003D4041F480773D4384830584F0BD028B08
:1035D0004FF2FF331A400283028B0B0642EA13427A
:1035E00002837047F0B5002400250026078C4FF6B3
:1035F000EF7C07EA0C070784048B058C0F053E0C53
:1036000040F6FF473C401F0744EA1744170644EAC8
:1036100017449B4FB8420ED09A4FB8420BD0B0F12E
:10362000804F08D0984FB84205D0984FB84202D08A
:10363000974FB84206D14FF6DF773D4046F010076E
:103640003D4305E04FF65F773D4041F010073D43B5
:1036500004830584F0BD028B4FF6F3731A40028396
:10366000028B0A4302837047F0B500240025068CC4
:103670004FF6FE773E400684048B058C4FF60C76A1
:1036800034401E0542EA164634437D4EB0420ED009
:103690007C4EB0420BD0B0F1804F08D07A4EB04291
:1036A00005D07A4EB04202D0794EB04206D14FF6E4
:1036B000FD76354041F00106354305E04FF6F576DD
:1036C000354041F00106354304830584F0BD70B5F3
:1036D00004460D466A4884420ED06A4884420BD0A4
:1036E000B4F1804F08D06848844205D067488442CE
:1036F00002D06748844200D100E000BF288850B95A
:103700002B89AA8869882046FFF7AEFFE988204602
:10371000FFF7A1FF25E0288804280AD12B89AA8871
:1037200069882046FFF75EFFE9882046FFF74FFFD4
:1037300017E0288808280AD12B89AA88698820469A
:10374000FFF70EFFE9882046FFF701FF09E02B890C
:10375000AA8869882046FFF7C1FEE9882046FFF75E
:10376000B2FE70BD2DE9F04104460D46002601274A
:10377000688808B9022600E00026A888012801D13F
:10378000022700E001272888A0B92B89AA88698828
:103790002046FFF769FFE9882046FFF75CFF2B8989
:1037A0003A4631462046FFF71DFFE9882046FFF7DD
:1037B0000EFF13E02B89AA8869882046FFF712FFC5
:1037C000E9882046FFF703FF2B893A463146204619
:1037D000FFF74AFFE9882046FFF73DFFBDE8F0818B
:1037E0000A884B881A438B881A43CB881A430B8963
:1037F0001A434B891A438B891A43A0F84420704717
:103800004FF6FF71818000210180C18041800172EB
:1038100070470021018041808180C1800181418108
:103820008181C18170470021018041800121818017
:103830000021C18001817047002101804180818089
:10384000C180018141818181704721B1028842F0AC
:103850000102028004E002884FF6FE731A400280E3
:10386000704731B1B0F8442042F40042A0F844203F
:1038700005E0B0F84420C2F30E02A0F844207047DF
:10388000002C0140003401400004004000080040CA
:10389000000C004010B51AB183890B43838104E00A
:1038A0008389CC43A4B22340838110BD81827047B9
:1038B00041EA0203A0F84830704710B51AB1838975
:1038C0000B43838104E08389CC43A4B223408381EA
:1038D00010BD01894FF6F872114001817047002236
:1038E00002894FF68F731A400A430281704730B540
:1038F00004460D4629462046FFF7F1FF208940F097
:103900000700208130BD2DE9F04104460D461646E2
:103910001F46602D06D13B46012231462046FFF767
:1039200061FE05E03B46012231462046FFF79CFE42
:1039300029462046FFF7D3FF208940F00700208169
:10394000BDE8F08130B500240489E4B21D0642EAE6
:1039500015450D432C43048130BD2DE9F04104464B
:103960000D461646984600274346324629462046CD
:10397000FFF7E8FF27894FF6F870074047F0070781
:103980004FF68F70074047F070072781BDE8F08140
:10399000F0B504460D4616461F463B4632462946BC
:1039A0002046FFF7CFFF208940F480402081F0BD02
:1039B000018582827047002202884FF68F731A4079
:1039C0000A4302807047F0B50024002500260489D0
:1039D000058B068C4FF6F8773C400C434FF6FC47BE
:1039E0003D4040F201173D434FF6DD773E401F0555
:1039F00042EA17473E43048105830684F0BD002256
:103A0000028B4FF68F731A400A43028370470022DD
:103A1000028B48F6FF731A400B0642EA13420283F8
:103A200070470022828B4FF68F731A400A438283BD
:103A300070470022828B48F6FF731A400B0642EA59
:103A400013428283704721B1028842F080020280D3
:103A500004E002884FF67F731A400280704721B15C
:103A6000828842F00402828004E082884FF6FB7371
:103A70001A408280704721B1828842F00802828019
:103A800004E082884FF6F7731A408280704721B1B4
:103A9000828842F00102828004E082884FF6FE7341
:103AA0001A40828070470022028B4FF6F7731A404B
:103AB0000A43028370470022028B4FF2FF731A40C1
:103AC0000B0642EA1342028370470022828B4FF6B4
:103AD000F7731A400A43828370470022828B4FF2A9
:103AE000FF731A400B0642EA13428283704700229A
:103AF000028B4FF6FB731A400A4302837047002281
:103B0000028B4FF6FF331A400B0642EA1342028340
:103B100070470022828B4FF6FB731A400A43828360
:103B200070470022828B4FF6FF331A400B0642EAA1
:103B30001342828370470022028B4FF67F731A4034
:103B40000A43028370470022028BC2F30E020B0667
:103B500042EA1342028370470022828B4FF67F7342
:103B60001A400A43828370470022828BC2F30E02FE
:103B70000B0642EA1342828370470022028C4FF602
:103B8000FD731A400A43028470470022028C4FF6EC
:103B9000F7731A400A43028470470022028C4FF6E2
:103BA000DF731A400B0542EA134202847047002279
:103BB000028C4FF67F731A400B0542EA13420284CF
:103BC00070470022028C4FF6FF531A400B0642EA60
:103BD0001342028470470022028C4FF2FF731A4096
:103BE0000B0642EA1342028470470022028C4DF613
:103BF000FF731A400B0742EA13420284704730B544
:103C0000002301248C40A3B2048CDD43ADB22C40D0
:103C10000484048C02FA01F5ADB22C43048430BD57
:103C200030B5002304248C40A3B2048CDD43ADB234
:103C30002C400484048C02FA01F5ADB22C430484B8
:103C400030BD70B500230024034618461833012503
:103C50008D40ACB2058CE643B6B23540058409B15F
:103C6000082909D103EB61031D6825F070051D606B
:103C70001D6815431D600CE00D1FADB203EB65031D
:103C80001D6825F4E0451D601D68160645EA1645C9
:103C90001D6070BD21B1028842F00202028004E082
:103CA00002884FF6FD731A400280704721B10288E6
:103CB00042F00402028004E002884FF6FB731A40CF
:103CC0000280704721B1828842F08002828004E045
:103CD00082884FF67F731A408280704702884FF6C1
:103CE000F7731A40028002880A4302807047828874
:103CF0004FF68F731A40828082880A438280704711
:103D000002894FF6F8731A40028102890A43028140
:103D1000704702894FF67F731A40028102890A4375
:103D20000281704781847047818570478186704722
:103D30000187704781877047A0F84010704702885C
:103D40004FF6FF431A40028002880A430280704700
:103D50000146888E70470146088F70470146888F5C
:103D600070470146B1F8400070470146888C7047A3
:103D70000146088D704702460020138A0B4201D08D
:103D8000012000E000207047CA430282704730B52E
:103D90000246002000230024158A05EA01039589C4
:103DA00005EA010413B10CB1012000E0002030BD90
:103DB000CA4302827047000010B58CB004461E232F
:103DC0000BAA03A9204600F01CFE0090009810B139
:103DD00001200CB010BD9DF82C00044400200B9075
:103DE0000EE060489DF82C2050F8221003A800F047
:103DF0005FFD00B908E09DF82C00401CC0B20B909C
:103E00009DF82C000828ECDB00BF9DF82C0007284B
:103E10007ED2DFE800F00405395B8BA6A50000BF69
:103E200051A001F017F851A001F014F85FA001F0C3
:103E300011F86EA001F00EF87CA001F00BF88BA039
:103E400001F008F899A001F005F8A6A001F002F829
:103E5000ABA000F0FFFFB0A000F0FCFFB4A000F0AA
:103E6000F9FFB9A000F0F6FFBDA000F0F3FFC3A07A
:103E700000F0F0FFCEA000F0EDFFDAA000F0EAFFC6
:103E8000E5A000F0E7FFAEE237A000F0E3FFF2A00C
:103E900000F0E0FF00200B900EE0FF4800689DF866
:103EA0002C2000EBC2004168FCA000F0D3FF9DF87D
:103EB0002C00401CC0B20B90F748007D9DF82C10E0
:103EC0008842EADC28A000F0C5FF8CE226A000F0C2
:103ED000C1FFF4A000F0BEFF00200B901CE0EE49F3
:103EE00009689DF82C2001EBC20101AB02AA4868C9
:103EF00003A900F0AAFDE84800689DF82C1050F8CE
:103F0000312003A9F7A000F0A5FF9DF82C0000E0E8
:103F100067E2401CC0B20B90DF48007D9DF82C107A
:103F20008842DCDC10A000F095FF5CE20EA000F0FF
:103F300091FF0BAA03A9204600F08CFE9DF82C00EF
:103F400060B9694603A800F0E6FC0B909DF82C00D0
:103F500028B9E9A0009900F07DFFE2E1DFE1D1E1BD
:103F600011E2E3E1440000200D0A00002D2D2D2D6B
:103F70002D2D2D2D2D2D2D2D2D2D2D2D2D2D2D2D71
:103F80002D2D2D2D55534D4152542056322E382D66
:103F90002D2D2D2D2D2D2D2D2D2D2D2D2D2D2D2D51
:103FA0002D2D2D2D2D2D2D200D0A0000202020201F
:103FB00055534D415254CAC7D3C9414C49454E543B
:103FC000454BBFAAB7A2B5C4D2BBB8F6C1E9C7C9B1
:103FD000B5C4B4AEBFDAB5F7CAD4BBA5BDBBD7E98B
:103FE000BCFE2CCDA8B9FD200D0A0000CBFC2CC4D2
:103FF000E3BFC9D2D4CDA8B9FDB4AEBFDAD6FACAF0
:10400000D6B5F7D3C3B3CCD0F2C0EFC3E6B5C4C8BE
:10401000CEBACEBAAFCAFD2CB2A2D6B4D0D02ED270
:10402000F2B4CB2CC4E3BFC90D0A0000D2D4CBE656
:10403000D2E2B8FCB8C4BAAFCAFDB5C4CAE4C8EB92
:10404000B2CECAFD28D6A7B3D6CAFDD7D6283130FE
:104050002F3136BDF8D6C629A1A2D7D6B7FBB4AE4C
:10406000A1A2BAAFCAFDC8EB0D0A0000BFDAB5D8ED
:10407000D6B7B5C8D7F7CEAAB2CECAFD292CB5A5FA
:10408000B8F6BAAFCAFDD7EEB6E0D6A7B3D6313090
:10409000B8F6CAE4C8EBB2CECAFD2CB2A2D6A7B31A
:1040A000D6BAAFCAFDB7B5200D0A0000BBD8D6B549
:1040B000CFD4CABE2ED0C2D4F6B2CECAFDCFD4CA97
:1040C000BEBDF8D6C6C9E8D6C3B9A6C4DC2CD0C2DA
:1040D000D4F6BDF8D6C6D7AABBBBB9A6C4DC2E0D94
:1040E0000A000000BCBCCAF5D6A7B3D63A777777EA
:1040F0002E6F70656E6564762E636F6D0D0A00001D
:1041000055534D415254D3D036B8F6CFB5CDB3C385
:10411000FCC1EE3A0D0A00003F3A20202020BBF1FE
:10412000C8A1B0EFD6FAD0C5CFA20D0A000000009A
:1041300068656C703A20BBF1C8A1B0EFD6FAD0C563
:10414000CFA20D0A000000006C6973743A20BFC949
:10415000D3C3B5C4BAAFCAFDC1D0B1ED0D0A0A00D0
:1041600069643A202020BFC9D3C3BAAFCAFDB5C421
:104170004944C1D0B1ED0D0A0A0000006865783AE3
:104180002020B2CECAFD3136BDF8D6C6CFD4CABEC5
:104190002CBAF3B8FABFD5B8F12BCAFDD7D6BCB448
:1041A000D6B4D0D0BDF8D6C6D7AABBBB0D0A0A007C
:1041B0006465633A2020B2CECAFD3130BDF8D6C660
:1041C000CFD4CABE2CBAF3B8FABFD5B8F12BCAFD0A
:1041D000D7D6BCB4D6B4D0D0BDF8D6C6D7AABBBB50
:1041E0000D0A0A00C7EBB0B4D5D5B3CCD0F2B1E01C
:1041F000D0B4B8F1CABDCAE4C8EBBAAFCAFDC3FBBC
:10420000BCB0B2CECAFDB2A2D2D4BBD8B3B5BCFC4E
:10421000BDE1CAF82E0D0A002D2D2D2D2D2D2D2D91
:104220002D2D2D2D2D2D2D2D2D2D2D2D2D2D2D2DBE
:104230002D2D414C49454E54454B2D2D2D2D2D2DC9
:104240002D2D2D2D2D2D2D2D2D2D2D2D2D2D2D2D9E
:104250002D2D2D200D0A00002D2D2D2D2D2D2D2D38
:104260002D2D2D2D2D2D2D2D2D2D2D2D2D2D2D2D7E
:104270002DBAAFCAFDC7E5B5A52D2D2D2D2D2D2DA0
:104280002D2D2D2D2D2D2D2D2D2D2D2D2D2D2D2D5E
:104290002D2D2D2D200D0A00A400002025730D0AC0
:1042A000000000002D2D2D2D2D2D2D2D2D2D2D2DF2
:1042B0002D2D2D2D2D2D2D2D2D2D2D2D2DBAAFCA82
:1042C000FD204944202D2D2D2D2D2D2D2D2D2D2D35
:1042D0002D2D2D2D2D2D2D2D2D2D2D2D2D2D2D2D0E
:1042E000200D0A0025732069642069733A0D0A3095
:1042F00058253038580D0A004845583A3058255846
:104300000D0A00009DF82C00042801D0022060E571
:10431000F5A000F09FFD0120F849C87501E00220DA
:1043200057E5AFF2BC3000F095FD5CE0AFF2C8306D
:1043300000F090FD0BAA03A9204600F08BFC9DF82D
:104340002C00C8B9694603A800F0E5FA0B909DF867
:104350002C0020B9EAA0009900F07CFD0EE09DF849
:104360002C00042801D0022033E5E8A000F072FD03
:104370000020E249C87501E002202AE5AFF21840AA
:1043800000F068FD2FE0AFF2204000F063FD0BAAC3
:1043900003A9204600F05EFC9DF82C00D8B96946C0
:1043A00003A800F0B8FA0B909DF82C0088B9D34808
:1043B000C07D012806D1009801460268D8A000F00F
:1043C00049FD0AE0009801460268D9A000F042FDCC
:1043D00003E00220FDE40220FBE4D4A000F03AFD5B
:1043E00001E00120F5E400BF0020F2E410B5012156
:1043F0008807FFF7CCFC10B1C0490869804701214C
:104400008807FFF7D5FC10BD7FB504460D46012196
:104410000846FEF7C6FB41F28830ADF8080041F6C9
:104420001F40ADF804000020ADF80A00ADF806000A
:1044300001A94FF08040FEF7E1FE012241218807EB
:10444000FFF728FA1C208DF8000003208DF80100EA
:104450008DF8020001208DF803006846FEF71FF872
:1044600000214FF08040FFF7F0F97FBD10B5044602
:1044700004EBC40000EB04100122C2EB800081B207
:104480004FF47A70FFF7C0FF01209C49C87510BD3A
:1044900030B595B0044613AB12AA09A9204600F026
:1044A000D4FA054615B1284615B030BD0020149049
:1044B00026E0924909689DF8502001EBC20113AB38
:1044C00011AA486801A900F0C0FA05460DB12846B6
:1044D000EAE709A901A800F0EBF960B99DF84400EA
:1044E0009DF84810884201DD0220DDE79DF850006C
:1044F000824988750AE09DF85000401CC0B21490B3
:104500007E48007D9DF850108842D2DC00BF7B4879
:10451000007D9DF85010884201D10420C4E714A901
:10452000204600F001FC05460DB12846BCE79DF889
:104530005000724948750020B6E7F0B59BB06F484F
:10454000847D007DA04201DC1BB0F0BD6B49096891
:1045500001EBC40107AB08AA486809A900F075FA85
:1045600009A976A000F076FC002544E06348018BA1
:104570000120A84001421BD0222172A000F06AFC59
:10458000284600F0C4FB5D492431471839466EA027
:1045900000F060FC22216BA000F05CFC284600F0DB
:1045A000B6FB56492431084411A941F8250018E00A
:1045B000284600F0ACFB51492431085811A941F8B4
:1045C00025004E48C07D30B911A850F825105FA0D5
:1045D00000F040FC05E011A850F825105CA000F0A8
:1045E00039FC9DF82000401EA84202D05AA000F0DD
:1045F00031FC681CC5B29DF820008542B6DB57A08F
:1046000000F028FC3D48407D0B280DD2DFE800F08B
:10461000060D151E27323F4E5DA8B90037490968BF
:1046200051F8340080470646BEE0344A126852F81A
:104630003410119888470646B6E0304B1B6853F893
:104640003420DDE9110190470646ADE02B4F3F686D
:1046500057F8343011A807C898470646A4E0DFF899
:104660009CC0DCF800C05CF8347011A80FC8B847D3
:10467000064699E0159BDFF884C00093DCF800C083
:104680005CF8347011A80FC8B84706468CE0DDE925
:104690001523DFF868C0CDE90023DCF800C05CF822
:1046A000347011A80FC8B84706467DE015A90EC999
:1046B000DFF848C08DE80E00DCF800C05CF834700C
:1046C00011A80FC8B84706466EE015A80FC8DFF856
:1046D0002CC08DE80F00DCF800C05CF8347011A825
:1046E0000FC8B84706465FE03136BDF8D6C6B2CE31
:1046F000CAFDCFD4CABE210D0A000000A4000020CC
:104700004445433A256C750D0A0000003130BDF870
:10471000D6C6B2CECAFDCFD4CABE210D0A00000053
:104720002A2830582558293D305825580D0A0000B0
:104730002A282564293D25640D0A00000D0A2573E9
:10474000280000002563000025730000256C75001B
:1047500030582558000000002C00000029000000FF
:1047600016A80FC801AF0FC7159BDFF8ECC0009368
:10477000DCF800C05CF8347011A80FC8B8470646D2
:1047800012E017A80FC802AF0FC7DDE91523DFF845
:10479000C8C0CDE90023DCF800C05CF8347011A873
:1047A0000FC8B847064600BF00BF9DF81C0001288F
:1047B0000CD12948C07D20B9314628A000F04AFB21
:1047C00007E0314627A000F045FB02E024A000F0FE
:1047D00041FBB9E670B52648008810F4004F35D08B
:1047E00023480088C5B20020224948551A488168EC
:1047F0002048884704461CB91749C868804722E00A
:104800001C48FFF7D9FA0546012D00D02C46002C94
:1048100019D0012C06D0022C08D0032C0AD0042C6D
:1048200010D10BE014A000F015FB0BE015A000F078
:1048300011FB07E016A000F00DFB03E017A000F04D
:1048400009FB00BF00BF00200949088070BD014678
:104850000868704701607047A40000203D256C7512
:104860003B0D0A003D305825583B0D0A0000000062
:1048700024000020F4010020BAAFCAFDB4EDCEF34D
:10488000210D0A00B2CECAFDB4EDCEF3210D0A000F
:10489000B2CECAFDCCABB6E0210D0A00CEB4D5D263
:1048A000B5BDC6A5C5E4B5C4BAAFCAFD210D0A00A1
:1048B00002460AE010780B78984201D00120704738
:1048C000107800B902E0521C491CF3E700BF002039
:1048D000F5E706E002780A70027802B902E0401CAF
:1048E000491CF7E700BF70470146002005E00A7841
:1048F00002B903E0421CD0B2491CF8E700BF704780
:1049000010B50246012000E050430B00A1F1010464
:10491000E1B2F9D110BD2DE9F04304460D46002760
:104920004FF00A09A0460020286027E098F8000010
:10493000392803DC98F8000030280DDA98F80000D8
:10494000462803DC98F80000412805DA98F80000B2
:1049500058280AD1012F08D198F80000412801DB1E
:104960004FF01009781CC7B206E098F8000000B9B3
:1049700005E00120BDE8F08308F10108D6E700BF9B
:10498000A046B9F1100F12D1032F01DA0220F1E78E
:1049900098F80000302808D198F80100582804D170
:1049A00008F10208B81EC7B204E00320E2E70FB91D
:1049B0000420DFE721E00FB1781EC7B298F80000AD
:1049C000392808DC98F80000302804DB98F800004B
:1049D000A0F1300603E098F80000A0F13706394650
:1049E0004846FFF78DFF296806FB0010286008F194
:1049F000010898F8000000B900E0DCE700BF0020E3
:104A0000B8E710B50446002010700BE0207808705D
:104A1000641C491C1078401C10701078984201DB0F
:104A2000012010BD2078202802D020780028EDD168
:104A300000200870F5E7014600E0491C08782028AE
:104A400001D10029F9D1087870472DE9FF4F86B0D0
:104A500004460D461E464FF0000800200590824691
:104A600001200490002001900090A1462AE099F8CE
:104A70000000202820D0009800F07F0005281BDAD5
:104A8000009818B9009840F080000090009800F05D
:104A90007F00042804D199F800002A2800D015E0EE
:104AA00099F80010009800F07F0002AA11540098B5
:104AB000401CC0B2009003E00098852800D105E0BA
:104AC00009F1010999F800000028D0D100BF009831
:104AD00088B10020009901F07F0102AA5054D9A1A9
:104AE00002A8FFF7E5FE10B90020307001E00120B8
:104AF0003070002000900027A1460FE009F1010965
:104B0000781CC7B299F80000202807D14846FFF763
:104B100092FF8346BBF1280F00D0059799F800005B
:104B2000282803D099F800000028E7D1A14605986D
:104B300010B10598401C81440027BB4671E099F8EC
:104B4000000008B901276DE099F80000282807D176
:104B5000BBF1000F04D108F1010000F0FF081FE0D5
:104B600099F8000029280FD1BBF1000F0CD1B8F142
:104B7000000F04D0A8F1010000F0FF0800E00127B9
:104B8000B8F1000F0CD14DE099F80000222807D1B0
:104B9000BBF1000F01D1012000E0002000F0FF0B6D
:104BA000B8F1000F08D199F80000202837D099F803
:104BB000000028706D1C32E099F800002C2806D106
:104BC000012004900098401CC0B2009019E099F8B0
:104BD0000000202815D099F80000282811D000984E
:104BE00058B90198052808DA99F8000002A9019A35
:104BF00088540198401CC0B201900498401CC0B277
:104C00000490B8F1010F0AD10498022807D1049842
:104C1000401CC0B204900AF1010000F0FF0A09F143
:104C200001098CE700BFBAF1010F0AD1002002A9E7
:104C3000019A885483A102A8FFF73AFE08B94FF001
:104C4000000A089880F800A00020287038460AB0B2
:104C5000BDE8F08FF0B503460020002400250026B3
:104C60004FE01F782C2F01D106B901241F78292F7E
:104C700001D01F780FB906B944E0002D34D11F7858
:104C8000302F02DB1F78392F11DD1F78612F02DBF7
:104C90001F78662F0BDD1F78412F02DB1F78462F10
:104CA00005DD1F78582F02D01F78782F0CD104B162
:104CB00028E01F78612F03DB1F78203F0F7001E091
:104CC0001F780F70491C19E01F78222F04D104B1FE
:104CD00018E00125012611E01F78202F0ED01F7843
:104CE0002C2F0BD0FF250DE01F78222F00D100269E
:104CF00004B107E016B11F780F70491C471CF8B2C9
:104D00005B1CAEE700BF00270F701570F0BD0146B9
:104D10000020002205E04D4B9B5C0344D8B2531C9D
:104D2000DAB28A42F7DB70472DE9F043B5B00446AA
:104D30000D464FF00008002604E00021434881554D
:104D4000701CC6B20A2EF8DB06E0641C207818B985
:104D5000012035B0BDE8F08320782828F5D1641C07
:104D600069E034AA69462046FFF774FF06463444DA
:104D70009DF8D00020B101282CD0FF2854D151E05B
:104D80009DF8000028B333A96846FFF7C4FD064626
:104D90000EB10220DDE74046FFF7B9FF2B490A318B
:104DA000339A0A50A1F12400018B012000FA08F087
:104DB000814326481A38018304211A3000F808106C
:104DC00008F1010000F0FF08B8F10A0F01DD03202F
:104DD000BFE729E06846FFF787FD401CC7B24046A1
:104DE000FFF795FF19490A3100EB0109494668466A
:104DF000FFF76FFD15481A38018B012000FA08F003
:104E0000014388B211491A390883104800F8087024
:104E100008F1010000F0FF08B8F10A0F01DD0320DE
:104E200097E701E0022094E700BF2078292801D00D
:104E3000207800B900E094E700BF85F800800020EA
:104E400087E70000766F696400000000BE00002064
:104E5000704700000FB4054A054910B503AB79440B
:104E6000029800F0EEF910BC5DF814FB2C00002055
:104E700001D3FFFF70B50446856900683026C1067E
:104E800000D42026C00709D106E0D4E9012130462C
:104E90009047206A401C20626D1EF6D570BD70B52B
:104EA000044685690068C00709D006E0D4E90121FD
:104EB00020209047206A401C20626D1EF6D570BDF0
:104EC00070B505460C46012A01D101200BE0286887
:104ED000800600D5EA69002000E0401C904202D222
:104EE000215C0029F9D1A9692618091AA961296A42
:104EF000014428462962FFF7BDFF04E0D5E90121FE
:104F000014F8010B9047B442F8D32846FFF7C7FFC7
:104F100070BD00002DE9F04180460026106875291B
:104F2000414614A511D0AFF30080002802DA4042B8
:104F300011A508E0D8F800108A0701D50FA502E0F6
:104F4000490704D50EA5012601E0AFF30080002437
:104F500008F1240704E000F09DF930313955641C54
:104F60000028F8D133462A4621464046BDE8F041A4
:104F700000F00AB9000000002D0000002B00000026
:104F80002000000070B504460D4621461068AFF3BE
:104F900000802168090502D5104A7A4402E00F4AD0
:104FA0007A440E32002104F1240306E000F00F06DB
:104FB0004FEA1010965D5E54491C0028F6D1206817
:104FC0000023000704D5702D02D009B1113202234D
:104FD0002046BDE8704000F0D7B80000240800006B
:104FE0002DE9F05F4FF0000B054689464FF0010AAE
:104FF000C0F820B02846E968884700287ED02528D8
:1050000002D0D5E90121B0E05C4F00267F4428465C
:10501000E96888472028044607DB312C05D2381977
:1050200010F8200C08B10643F1E7B00701D526F0CF
:105030000406C5F81CB00027C5F818B02A2C10D1FA
:10504000284659F8041B05EB87029161E9688847F7
:10505000012F044628D1E869002830DA26F020061E
:105060002DE0A4F1300052460A2801461AD2CAB1F6
:1050700005EB870092468046816108E0D8F8180069
:1050800000EB800004EB40003038C8F818002846D8
:10509000E968884704465046A4F130010A2901D244
:1050A0000028EBD1012F0AD02E2C08D12846E96820
:1050B00088477F1C0446022F46F02006BEDBA86905
:1050C000002803DA404246F00106A861F00701D04B
:1050D00026F010066C2C01D0682C18D127462846E3
:1050E000E9688847B84204460BD180206C2F00D075
:1050F000C000E96806432846884700E03AE00446D5
:1051000015E040206C2F00D0800006430FE04C2CAF
:1051100005D06A2C03D0742C01D07A2C07D15846C4
:105120004C2CE6D080206A2CE3D00020E1E70CB3C1
:10513000A4F14100192802D8203446F400664A46FA
:10514000214628462E604E46FBF74CF850B1012808
:1051500002D106F104094DE7F61D26F0070000F123
:10516000080947E7D5E9012120469047286A401CF5
:1051700028623FE7286ABDE8F09F0000DA070000D8
:1051800070477047704770472DE9F0470D46044659
:105190009246994600F124080168880604D5E06922
:1051A00021F01001216000E001200027A84200DD6D
:1051B000471BA1697A1902EB0900081AA06120684F
:1051C000C00602D42046FFF755FE002608E0D4E9C9
:1051D00001211AF806009047206A401C761C2062C4
:1051E0004E45F4DB2068C0060AD52046FFF742FE94
:1051F00006E0D4E9012130209047206A401C20625B
:10520000381EA7F10107F4DC07E0D4E9012118F802
:1052100005009047206A401C2062281EA5F1010568
:10522000F3DC2046FFF73BFE21680220090600D48C
:105230000120BDE8F087000001694A1C026108787E
:10524000704710B50C46194690B0CDE902420022D5
:105250000692044A7A44CDE9042001A8FFF7C0FE73
:1052600010B010BDE1FFFFFF10B5436913B1AFF3FC
:10527000008001E0FFF724FE012010BD126800F15C
:1052800024010A7000224A700122EDE711684FF0F4
:10529000FF32E9E74FF00A01B0FBF1F202FB110126
:1052A00010467047754600F029F8AE46050069467D
:1052B000534620F00700854618B020B5FDF7D8F812
:1052C000BDE820404FF000064FF000074FF0000807
:1052D0004FF0000B21F00701AC46ACE8C009ACE888
:1052E000C009ACE8C009ACE8C0098D467047044667
:1052F000AFF300802046FAF795FF000000487047A2
:105300003408002002494FF0000000F010BA0000FD
:105310000000F87F02494FF0000000F008BA0000DA
:105320000000F87F4FEAC12303B40A1543EA505343
:1053300018BF43F000430DD4A2F56072D2F19E0273
:1053400040F32180FF2ACCBF002123FA02F1084656
:1053500002B070474FEA4252520D08BF23F000439B
:105360004FF00001A2F56072D2F19E020BDBFF2A22
:10537000DCBF23FA02FCA1EB0C010029DEBF02B066
:1053800008467047FFE703BCDFF830C0012841EB57
:10539000010313F5001F88BF4CF4803C3FF6BAAF01
:1053A0003EBF6FEAE17080F000407047AFF30080CD
:1053B0006FEAE17080F0004070470000C80002040E
:1053C00010F0004314BF4142014643F08043B1FA5C
:1053D00081FC03F1F87311FA0CF1A3EB0C534FEAC3
:1053E000415008BF704703EBE1217047DFF8B4C1BB
:1053F00070B53CEA111E18BF3CEA131E00F0A680EF
:1054000081EA03050CEA111E4EEAD57E1CEA13154B
:1054100018BF11EA0C1F00F08F80AE4421EA4C1136
:1054200023EA4C13AEF17F7E41F4801143F48013E4
:10543000A1FB024CA0FB0365361955EB0C05A1FB43
:10544000034C4CF10003A0FB021C16EB0C0665415B
:1054500053F10003094218BF46F001064FF0140C47
:10546000B3F5007F4CF1000CCCF1200425FA0CF2CE
:1054700003FA04F141EA020105FA04F026FA0CF2FB
:1054800040EA02006FF0030242EB2E4216FA04F4E7
:1054900001EB025585EACE7115D05FEA440C38BFA6
:1054A0004FF040440FD308BF43F0004350F10000D9
:1054B00041F1000110EAD37F4FF0804420EAD3701D
:1054C00018BF4FF0404415F0004FDFF8DCC017D490
:1054D00015EA0C0F18BF3CEA010C11D070BD5FEA51
:1054E000CE7454BF1CF4000F1CF4800F0ABF4FF0A1
:1054F00080444FF0404410F1010041F10001E2E727
:10550000BEF1806FA2BFA1F1C04144F0130C4CF07A
:10551000805CBDE8704006DA4FF0000001F1C04148
:1055200001F0004170476FF0000041EA500181EA4C
:1055300010314FF0000070474FEACE714FF000007D
:1055400070BD4FEACE714FF0000070BD4FEA4105CB
:10555000B5EB4C1F4FEA430608BF002898BFB6EBD7
:105560004C1F08BF002ABDE87040DFF840C03FF67E
:10557000C9AEAFF300804FF4001CBCEB410F98BFE5
:10558000BCEB430F0AD84FF0000081EA030101F0A1
:10559000004141F0FE4141F47001704704494FF071
:1055A000000070470000FF070000F07F13000004B8
:1055B0000000F87F094248BF4CF4803C4FF4C063C0
:1055C0004FEA115203F1010321EA025122F4006271
:1055D0009A1A48BF6FF0FE0241F48011352A3CD878
:1055E00030D0152A1ED3203A0CD90028C2F120034E
:1055F00021FA02F001FA03F218BF42F001024FF063
:10560000000130E0C2F1000302F1200201FA03F1CF
:1056100020FA02F241EA020100FA03F208464FF0D2
:10562000000120E0C2F1200310B400FA03F401FAF3
:1056300003F320FA02F021FA02F1224610BC43EAF9
:10564000000010E050EA01324FF000004FF000017E
:105650004FF0004218BF521C05E04FF001024FF01E
:1056600000014FF000001CF4803F2CF4803C18BF78
:1056700041F00041124208BF7047520003D303D0EB
:10568000401C41F1000170475FEAAC72F8D4FAD1D6
:10569000401C41F1000120F00100F4E77047704721
:1056A00000F5000C1CF0FE4F09D0C1104FEA40700D
:1056B00001F1605158BF7047A1F1E04170471CF4FF
:1056C000000F08D00146400008BF70474FF00000AF
:1056D0004FEA30017047DFF814C0420240F0088002
:1056E000AFF3008040F4E00110467047180000045A
:1056F000014800F01CB800000000C07F10F000421C
:1057000018BF404242F08042B0FA80F18840A2EBDC
:10571000C15202F1786208BF7047410642EB202077
:1057200018BF5FF0806C28BF20F0010070470CF0BC
:105730000F03092B08BF082000F02B800A2B0BD089
:10574000082B18BF704708BF1CF0400F0AD04FF05D
:1057500000004FF0000170471CF0400F18BF4FF0E1
:10576000004070471CF0100F08D020F0704300F08C
:105770007F4242EAD3014FEA4370704700F0604035
:1057800021F07F4242EA000201F07F4040EA72705D
:1057900070471CF4801F11D01CF4E02F03D06FEA77
:1057A000CC31490070474FF04050EFF3008222F0B7
:1057B000704242EA000282F3008870474FF0000016
:1057C000704730313233343536373839414243440B
:1057D0004546403058003031323334353637383969
:1057E0006162636465664030780004000008000070
:1057F00000000000000200010000103F006465632B
:105800000069640068656C70006C69737400686599
:105810007800766F696420524441353832305F42F7
:10582000616E645F5365742875382062616E642907
:1058300000766F696420524441353832305F5273CC
:1058400073695F5365742875382072737369290012
:10585000766F69642077726974655F616464722829
:1058600075333220616464722C7533322076616C3A
:105870002900766F696420524441353832305F56D2
:105880006F6C5F53657428753820766F6C290076CD
:105890006F696420524441353832305F5478504744
:1058A000415F536574287538206761696E290076F9
:1058B0006F696420524441353832305F46726571F9
:1058C0005F536574287531362066726571290075DD
:1058D000333220726561645F6164647228753332AB
:1058E00020616464722900766F69642064656C616C
:1058F000795F6D7328753136206E6D732900766F70
:1059000069642064656C61795F7573287533322032
:105910006E7573290000000038590008000000204F
:10592000900100006C010008B459000890010020AB
:10593000080D0000C8010008D184A24A040009141F
:105940000102030406070809291C6920170204063E
:1059500008FB57140804581B0809041A01041A0EFE
:10596000041AFD14134F481B08CF0C1A55081A507F
:105970000813FF201B08E7081ABB081AFE08135972
:105980001B1B0831081AB7081A12081AF5081AAFB3
:10599000081A15081A72081A97081A8F08225C1438
:1059A000206D441B089104133B451C08D5476C1916
:0459B0008701D40097
:0400000508000131BD
:00000001FF
